:020000040800F2
:1000000000000120BD2E0008850C0008870C0008A8
:10001000890C00088B0C00088D0C00080000000003
:100020000000000000000000000000008F0C00082D
:10003000910C000800000000930C0008950C0008CB
:10004000052F0008052F0008052F00089D0C00084B
:10005000052F0008052F0008052F0008052F0008B0
:10006000052F0008052F0008052F0008052F0008A0
:10007000052F0008052F0008052F0008052F000890
:10008000052F0008052F0008052F0008052F000880
:10009000052F0008052F0008052F0008052F000870
:1000A000052F0008052F0008052F0008052F000860
:1000B000052F0008052F0008052F0008052F000850
:1000C000052F0008052F0008052F0008052F000840
:1000D000052F0008AD0C0008052F0008052F0008AB
:1000E000052F0008052F0008052F0008052F000820
:1000F000052F0008052F0008052F0008052F000810
:10010000052F0008052F0008052F0008052F0008FF
:10011000052F0008052F0008CD0C0008052F00084A
:10012000052F0008052F0008052F0008052F0008DF
:1001300000000000000000000000000000000000BF
:1001400000000000000000000000000000000000AF
:10015000000000000000000000000000000000009F
:10016000000000000000000000000000000000008F
:10017000000000000000000000000000000000007F
:10018000000000000000000000000000000000006F
:10019000000000000000000000000000000000005F
:1001A000000000000000000000000000000000004F
:1001B000000000000000000000000000000000003F
:1001C000000000000000000000000000000000002F
:1001D000000000000000000000000000000000001F
:0401E0005FF8E0F1F3
:1001E40010B5054C237833B9044B13B10448AFF36D
:1001F40000800123237010BDA8040020000000002B
:10020400B83E000808B5034B1BB103490348AFF3DC
:10021400008008BD00000000AC040020B83E0008C7
:1002240070B596B00024119412940794089409941C
:100234000A940B94019402940394049405940694F0
:1002440005230C934FF480330D930E9401250F95E1
:1002540010950226139614934FF4E01315930CA8EB
:1002640001F0B8F80F230793089609944FF48063BC
:100274000A930B94314607A801F0EAFA01954FF46A
:100284008073029301A801F0BFFB16B070BD00009B
:1002940000B5ADF20C4D4FF48062394902A802F06A
:1002A40055FE01F049F8FFF7BBFF00F083F800F0BA
:1002B400A3F800F041F900F045FA00F0DDF900F090
:1002C400C5FA00F05EFB0A222E492F4802F0A9FC71
:1002D4002E4803686FF001021A6102F06FFA2C4B8A
:1002E40001221A7031E02B4A0021084600F0F2FB8B
:1002F400294A0021022000F0EDFB0A23274A0021AD
:10030400042000F07FFB0923254A0021062000F089
:1003140079FB40F6B83001F033F800F032FB02AB61
:1003240000937F2307220021084600F0E3FB40F6F8
:10033400B83001F025F800F024FB00F0FFFB40F694
:10034400B83001F01DF800F01CFB114B1B78002B9A
:10035400C9D00F4B00221A70124C134D2146284667
:1003640000F0C2F8114EAB786A782978304602F072
:1003740003FEA3786278E178304602F0FDFDB2E72F
:10038400D03E0008C8050020840700204407002050
:10039400C4040020E4420008FC42000810430008A2
:1003A4001C430008D4060020D8060020D0420008D0
:1003B4007047000084B00F4B9A6942F010029A61B2
:1003C4009A6902F010020192019A9A6942F00402B9
:1003D4009A619A6902F004020292029A9A6942F0BE
:1003E40008029A619B6903F008030393039B04B01A
:1003F400704700BF0010024008B50B480B4B036068
:100404000B4B436000238360C3604FF4804202615E
:1004140043618361C361036200F0E2FD00B908BD7A
:10042400FFF7C6FFFBE700BFDC06002000540040D6
:10043400A086010010B586B00023029303930493B1
:1004440005930268114B9A4201D006B010BD104CBE
:10045400A36943F00803A361A36903F008030093AD
:10046400009BC0230293122303930323059302A941
:10047400084801F0DBFBE36943F40013E361E3693B
:1004840003F400130193019BDFE700BF0054004015
:1004940000100240000C01400268104B9A4200D048
:1004A400704700B583B001F0FBFD0D4BDA6942F0F3
:1004B4000062DA61DB6903F000630193019B094B7D
:1004C40001221A6000221146032001F091FD03204D
:1004D40001F0C2FD03B05DF804FB00BF002800403A
:1004E400001002403C04424238B50D46104C002234
:1004F4000146204601F090FF00222946204602F0E2
:100504007BF80C4DEA780221204602F047F96A781C
:100514000321204602F042F9AA780421204602F081
:100524003DF92A780521204602F038F938BD00BF8C
:1005340030070020D406002030B583B00023ADF886
:1005440004308DF8063000934748484A02604FF063
:10055400FF324260836002F09FF8002852D10121EB
:10056400414802F023F945F25103984253D0232322
:100574008DF8043050238DF8053000238DF80630B3
:10058400012201A9384801F0E5FE00283DD10223EB
:100594008DF8003006238DF8013023238DF80230C6
:1005A40020238DF80330012269462F4801F0BAFF59
:1005B40070BB2D4C2268136843F0010313602C4D6B
:1005C4000098286045F251020121204602F0E6F825
:1005D400EA780221204602F0E1F86A7803212046F5
:1005E40002F0DCF8AA780421204602F0D7F82A7831
:1005F4000521204602F0D2F81D491E48FFF774FF7A
:1006040003B030BDFFF7D4FEA9E7FFF7D1FEBEE784
:10061400FFF7CEFECDE7144C0221204602F0C6F8C7
:10062400134DE8700321204602F0C0F868700421DD
:10063400204602F0BBF8A8700521204602F0B6F867
:1006440028702868009000226946204601F06AFF5D
:1006540030B9054B1A68136843F001031360CBE704
:10066400FFF7A6FEF5E700BF300700200028004092
:10067400D4060020D806002000B583B000230093E0
:1006840001930F480F4A026047224260836044F698
:100694002062C260836102F0AFF950B90023009375
:1006A40001936946064802F0C1F928B903B05DF820
:1006B40004FBFFF77DFEF1E7FFF77AFEF6E700BFE4
:1006C400440700200010004002680E4B9A4200D0FC
:1006D400704700B583B003F50033DA6942F01002C5
:1006E400DA61DB6903F010030193019B00221146D8
:1006F400362001F07DFC362001F0AEFC03B05DF83D
:1007040004FB00BF0010004002680B4B1B689A42B8
:1007140000D07047094A13780133DBB21370322BCF
:10072400F7D9074B1B78002BF3D1134600221A701C
:10073400034B01221A70ECE744070020C504002093
:10074400C404002008B50A480A4B03604FF4E1339F
:10075400436000238360C36003610C2242618361B0
:10076400C36102F02FFA00B908BDFFF721FEFBE7D1
:10077400840700200038014030B587B0002302937D
:1007840003930493059302681B4B9A4201D007B06C
:1007940030BD03F558439A6942F480429A619A69DC
:1007A40002F480420092009A9A6942F004029A612B
:1007B4009B6903F004030193019B4FF400730293BC
:1007C40002230393032305930C4D02A9284601F049
:1007D4002DFA4FF48063029300240394049402A935
:1007E400284601F023FA22462146252001F000FC88
:1007F400252001F031FCCAE700380140000801401F
:1008040010B586B08DF817000C4619B1402C0ED0E7
:1008140006B010BD64230293012301930DF1170266
:10082400009200227821084800F0AEFCEEE7642331
:100834000293012301930DF11702009240227821C3
:10084400014800F0A1FCE3E7DC06002008B5002124
:10085400AE20FFF7D5FF00210846FFF7D1FF0021A6
:100864001020FFF7CDFF00214020FFF7C9FF002132
:10087400B020FFF7C5FF00218120FFF7C1FF002151
:100884007F20FFF7BDFF0021A120FFF7B9FF002162
:10089400A620FFF7B5FF0021A820FFF7B1FF002134
:1008A4003F20FFF7ADFF0021C820FFF7A9FF00217B
:1008B400D320FFF7A5FF00210846FFF7A1FF002181
:1008C400D520FFF79DFF00218020FFF799FF00212D
:1008D400D920FFF795FF00212220FFF791FF002187
:1008E400DA20FFF78DFF00211220FFF789FF002196
:1008F400DB20FFF785FF00212020FFF781FF002187
:100904008D20FFF77DFF00211420FFF779FF0021E0
:10091400AF20FFF775FF08BD10B50C465038002115
:10092400C0B2FFF76DFF002104F00F00FFF768FF6E
:100934002009002140F01000FFF762FF10BD70B5E0
:100944000546002601E00136F6B2072E18D8A6F1B6
:1009540050000021C0B2FFF753FF00210846FFF703
:100964004FFF00211020FFF74BFF002414F0800FED
:10097400E9D140212846FFF743FF0134E4B2F5E70B
:1009840070BD08B50020FFF7DAFF08BDF8B50646CC
:100994000F461546FFF7C0FF002405E04021285DFF
:1009A400FFF72EFF0134E4B2072CF7D9701C394647
:1009B400C0B2FFF7B1FF002407E004F108034021AF
:1009C400E85CFFF71DFF0134E4B2072CF5D9F8BD4C
:1009D40038B50023252B08D803EB0314084D2C5DF0
:1009E400944202D00133DBB2F4E7262B06D003EBAA
:1009F4000313034A1A440132FFF7C8FF38BD00BF8E
:100A0400000000202DE9F041804616461F46C9002B
:100A1400CCB20025BD420AD216F8012B214640462D
:100A2400FFF7D6FF0834E4B20135EDB2F2E7BDE8D2
:100A3400F081F8B506460F461546FFF76DFF002412
:100A44000F2C06D84021285DFFF7DAFE0134E4B20A
:100A5400F6E7701C3946C0B2FFF75EFF00240F2C86
:100A640008D804F110034021E85CFFF7C9FE013403
:100A7400E4B2F4E7F8BD000038B5002300E0013328
:100A84000B2B19D803EBC304114D15F8245014781B
:100A9400A542F4D103EBC3040D4D05EB8404657842
:100AA4005478A542EBD103EBC304094D05EB840450
:100AB400A5789478A542E2D10C2B07D003EBC303AD
:100AC400034A02EB83020432FFF7B3FF38BD00BFD1
:100AD4008802002070B506460C4615462B7843B1B3
:100AE4002A4621463046FFF7C7FF1034E4B20335E7
:100AF400F4E770BD2DE9F84F8046894692461E46BC
:100B04000A9F4FF0000B0FE00BF10105402117F88D
:100B14000B00FFF775FE0134E4B2AB46B442F3D9DF
:100B240008F101085FFA88F8D04505D849464046DF
:100B3400FFF7F2FE4C46F1E7BDE8F88FF8B54A4CF2
:100B44003223237030236370484EF378484DA5FB5D
:100B54000312D1080A463032A27001EB810251001F
:100B64005B1A3033E3700423224600210846FFF762
:100B740049FF404F01233A4604210020FFF742FF7A
:100B84007278A5FB0213DB0803F13001217003EB3B
:100B940083035900521A303262700223224605211F
:100BA4000020FFF72FFF01233A4607210020FFF71B
:100BB40029FFB278A5FB0213DB0803F13001217091
:100BC40003EB83035900521A303262700223224627
:100BD40008210020FFF716FF274E3278A5FB0213E9
:100BE400DB0803F13001217003EB83035900521A2F
:100BF400303262700223224600211846FFF702FFBA
:100C04001E4F01233A4602210846FFF7FBFE727885
:100C1400A5FB0213DB0803F13001217003EB83030E
:100C24005900521A303262700223224603211846B8
:100C3400FFF7E8FE01233A4605210220FFF7E2FE12
:100C4400B378A5FB0325ED0805F13002227005EB0E
:100C540085056A009B1A30336370022322460621FD
:100C64001846FFF7CFFEF8BDC8040020D4060020C4
:100C7400CDCCCCCC28430008D80600202C43000857
:100C84007047FEE7FEE7FEE7FEE7704770477047F0
:100C940008B500F063FB08BD08B5024801F05CFD2F
:100CA40008BD00BF3007002010B5054C204602F0F7
:100CB40045F814220349204601F0B3FF10BD00BFDC
:100CC40084070020C805002008B5024801F08BFD08
:100CD40008BD00BF440700207047000082B00E4BDF
:100CE4009A6942F001029A619A6902F00102009243
:100CF400009ADA6942F08052DA61DB6903F08053CA
:100D04000193019B054A536823F0E06343F0806339
:100D1400536002B0704700BF001002400000014061
:100D240003685A6912F4806F01D1002070476FF490
:100D340080625A6100230363202280F83D2080F8FA
:100D44003E30026C42F00402026480F83C30012020
:100D540070472DE9F04107460D4690461E4622E0B5
:100D640000F008FB069BC01AB04200D8DEB900238D
:100D74003B63202287F83D2087F83E303A6C42F0EE
:100D840020023A6487F83C3001201AE03B689C69F1
:100D940025EA0404A4B2B4FA84F46409A0450FD18A
:100DA400B6F1FF3FDCD1C5F30743012BEED13B681D
:100DB4005C6925EA0404A4B2B4FA84F46409EDE796
:100DC4000020BDE8F0812DE9F04105460E461746A6
:100DD40098463DE01A6842F400721A602B686FF47A
:100DE40080625A6100232B63202285F83D2085F818
:100DF4003E302A6C42F004022A6485F83C3001201B
:100E040034E000F0B7FAA0EB0800B84200D8FFB90C
:100E140000232B63202285F83D2085F83E302A6C80
:100E240042F020022A6485F83C3001201EE02B6841
:100E34009C6926EA0404A4B2003C18BF0124A4B1AE
:100E44002B685A6912F4806FC4D1B7F1FF3FD8D12F
:100E5400C6F30743012BEAD12B685C6926EA040434
:100E6400A4B2003C18BF0124E9E70020BDE8F081EA
:100E740070B504460D46164623685B6913F0800F6F
:100E84001CD12046FFF74CFFD0B9B5F1FF3FF3D09A
:100E940000F070FA801BA84201D8002DECD1002389
:100EA4002363202284F83D2084F83E30226C42F0F3
:100EB4002002226484F83C30012000E0002070BD50
:100EC4000120FCE72DE9F04385B004460D46914628
:100ED40098460C9E0D9F0368196841F4807119604F
:100EE4000097334600224FF00111FFF732FF18B18B
:100EF400012005B0BDE8F083236805F0FE051D61FF
:100F04003B46324620492046FFF75DFF08B10120E9
:100F1400EFE70023039323685A6903929B690393C1
:100F2400039B3A4631462046FFF7A2FF38B9B8F191
:100F3400010F0FD123685FFA89F61E61D9E7236C8C
:100F4400042B01D00120D4E72268136843F4007312
:100F54001360F7E723684FEA19221A613A463146CB
:100F64002046FFF785FF20B923685FFA89F61E61E2
:100F7400BFE7236C042B01D00120BAE72268136871
:100F840043F400731360F7E70200010070B50446F0
:100F94000D46164623685B6913F0040F1CD12046E6
:100FA400FFF7BEFED0B9B5F1FF3FF3D000F0E2F990
:100FB400801BA84201D8002DECD1002323632022FA
:100FC40084F83D2084F83E30226C42F020022264F2
:100FD40084F83C30012000E0002070BD0120FCE7D3
:100FE400002800F0C280F8B5044690F83D30002B8C
:100FF4006DD0242384F83D302268136823F0010364
:10100400136000F0E1FC62685A4B9A4264D85A4B70
:1010140098428CBF00230123002B40F0A880574D39
:10102400A5FB0035AF0C2668716821F03F0141EA49
:101034009541716021680B6A23F03F0365684D4A4E
:1010440095424FD87A1C13430B622568E96921F451
:101054004F4121F0FF016368464A93424CD801385E
:101064005B00B0FBF3F0013040F6FC73184278D01B
:10107400C0F30B030B43EB6121680B6823F0C0033F
:10108400E269206A024313430B6021688B6823F4EE
:10109400034323F0FF032269E068024313438B6098
:1010A4002168CB6823F0FF036269A06902431343FC
:1010B400CB602268136843F00103136000202064AE
:1010C400202384F83D30206384F83E00F8BD80F886
:1010D4003C30FFF7AFF98CE7294B98428CBF0023D3
:1010E400012399E74FF4967202FB07F2254DA5FB05
:1010F400025292090132A6E7A268BAB9461E03EB6E
:101104004307B6FBF7F60136C6F30B06B6FA86F6C6
:10111400760946BBC2B9421E03EB4303B2FBF3F2AA
:101124000132C2F30B0242F40043A3E7461E03EB71
:10113400830707EB8707B6FBF7F60136C6F30B0602
:10114400B6FA86F67609E4E7421E03EB830303EB63
:101154008303B2FBF3F20132C2F30B0242F44043C5
:1011640088E7042386E7012384E7012070470120F0
:10117400ACE700BFA08601007F841E0083DE1B4312
:10118400FF083D00D34D62102DE9F04383B00446BF
:101194000F46904699460C9E00F0ECF8054694F8EC
:1011A4003D00C0B2202803D0022003B0BDE8F08384
:1011B4000095192301224B492046FFF7CAFD002858
:1011C40040F0898094F83C30012B00F086800123A4
:1011D40084F83C3023681A6812F0010F03D11A68AE
:1011E40042F001021A602268136823F4006313605A
:1011F400212384F83D30402384F83E3000232364C7
:101204000A9B6362BDF82C306385638D2385364B5E
:10121400E362019500964B46424639462046FFF765
:1012240051FE00285BD1238D002B35D02A46314650
:101234002046FFF71DFE20BB626A236812781A61FC
:10124400616A4B1C6362228D013A92B22285638DDE
:101254009BB2013B9BB263852368586910F0040F6D
:10126400E1D0002ADFD04A781A61636A01336362ED
:10127400238D013B2385638D9BB2013B9BB2638528
:10128400D1E7236C042B01D001208EE72268136878
:1012940043F400731360F7E72A4631462046FFF70C
:1012A40075FE50B1236C042B01D001207DE7226828
:1012B400136843F400731360F7E72268136843F478
:1012C40000731360202384F83D30002384F83E30FB
:1012D40084F83C3069E7022067E7022065E70120D3
:1012E40063E700BF020010000000FFFF10B50446D2
:1012F4000E4B18784FF47A73B3FBF0F30C4A106872
:10130400B0FBF3F000F0B6FE68B90F2C01D9012050
:101314000AE0002221464FF0FF3000F069FE054B41
:101324001C60002000E0012010BD00BF3804002034
:10133400400400203C04002008B5074A136843F029
:1013440010031360032000F041FE0020FFF7CEFFDE
:10135400FFF7C4FC002008BD00200240034A1168C6
:10136400034B1B780B441360704700BFC407002075
:1013740038040020014B1868704700BFC4070020E0
:1013840038B50446FFF7F6FF0546B4F1FF3F02D037
:10139400044B1B781C44FFF7EDFF401BA042FAD31B
:1013A40038BD00BF3804002082B0084B1B68084ACF
:1013B400A2FB03235B0A00FB03F3019300BF019B21
:1013C4005A1E0192002BF9D102B07047400400204C
:1013D400D34D6210002800F0F18170B582B004464C
:1013E400036813F0010F2CD0AA4B5B6803F00C03C5
:1013F400042B1DD0A74B5B6803F00C03082B12D001
:101404006368B3F5803F41D0002B55D103F180438D
:1014140003F504331A6822F480321A601A6822F43D
:1014240080221A6037E09B4B5B6813F4803FE7D05F
:10143400984B1B6813F4003F03D06368002B00F043
:10144400BF81236813F0020F75D0924B5B6813F0D1
:101454000C0F5FD08F4B5B6803F00C03082B54D048
:101464002369002B00F089808B4B01221A60FFF75F
:1014740081FF0546874B1B6813F0020F74D1FFF7F9
:1014840079FF401B0228F5D903209EE1814A1368A5
:1014940043F480331360636843B3FFF76BFF05467F
:1014A4007C4B1B6813F4003FCBD1FFF763FF401B59
:1014B4006428F5D9032088E1B3F5A02F09D0754B32
:1014C4001A6822F480321A601A6822F480221A60A0
:1014D400E1E703F18043A3F53C331A6842F4802228
:1014E4001A601A6842F480321A60D4E7FFF742FFA8
:1014F4000546684B1B6813F4003FA2D0FFF73AFF80
:10150400401B6428F5D903205FE1624B5B6813F448
:10151400803FA5D15F4B1B6813F0020F03D02369F2
:10152400012B40F04F815B4A136823F0F803616993
:1015340043EAC1031360236813F0080F32D0A36990
:10154400002B45D0554B01221A60FFF713FF0546C7
:10155400504B5B6A13F0020F21D1FFF70BFF401BC6
:101564000228F5D9032030E14A4A136823F0F8032E
:10157400616943EAC1031360DDE7474B00221A6047
:10158400FFF7F8FE0546434B1B6813F0020FD2D059
:10159400FFF7F0FE401B0228F5D9032015E10120D6
:1015A400FFF702FF236813F0040F00F09780394B14
:1015B400DB6913F0805F1DD1364BDA6942F080524B
:1015C400DA61DB6903F080530193019B012512E08A
:1015D400324B00221A60FFF7CDFE05462D4B5B6AA5
:1015E40013F0020FDED0FFF7C5FE401B0228F5D929
:1015F4000320EAE000252A4B1B6813F4807F11D0F6
:10160400E368012B22D0002B38D103F1804303F58A
:1016140004331A6A22F001021A621A6A22F00402DE
:101624001A6218E01E4A136843F480731360FFF7CC
:10163400A1FE06461A4B1B6813F4807FE0D1FFF726
:1016440099FE801B6428F5D90320BEE0114A136A71
:1016540043F001031362E36873B3FFF78BFE06469E
:101664000C4B1B6A13F0020F37D1FFF783FE801B6C
:1016740041F288339842F3D90320A6E0052B11D018
:10168400044B1A6A22F001021A621A6A22F0040256
:101694001A62E0E700100240000042428004424225
:1016A400007000404D4B1A6A42F004021A621A6A32
:1016B40042F001021A62CEE7FFF75CFE0646474B92
:1016C4001B6A13F0020F08D0FFF754FE801B41F28F
:1016D40088339842F3D9032077E0E5B9E369002B16
:1016E40072D03E4A526802F00C02082A56D0022BED
:1016F40017D03B4B00221A60FFF73CFE0446374BE1
:101704001B6813F0007F47D0FFF734FE001B02284C
:10171400F5D9032059E0314AD36923F08053D361CA
:10172400DCE72F4B00221A60FFF724FE05462B4B03
:101734001B6813F0007F06D0FFF71CFE401B022835
:10174400F5D9032041E0236AB3F5803F1AD0234939
:101754004B6823F47413226A606A024313434B6098
:101764001F4B01221A60FFF705FE04461B4B1B6842
:1017740013F0007F0ED1FFF7FDFD001B0228F5D901
:10178400032022E0154A536823F40033A1680B4375
:101794005360DCE7002018E0002016E0012B16D08F
:1017A4000E4B5B6803F48031226A914211D103F439
:1017B4007013626A93420ED1002006E00120704744
:1017C400012002E0012000E0002002B070BD0120F1
:1017D400FBE70120F9E70120F7E700BF0010024012
:1017E4006000424286B0164B0FCB0DF1180C0CE989
:1017F4000F0040F20123ADF80430124B5B6803F094
:101804000C02082A02D0104806B07047C3F3834282
:10181400624412F8102C13F4803F0CD0094B5B681F
:10182400C3F34043634413F8143C074800FB02F03D
:10183400B0FBF3F0E8E7054800FB02F0E4E700BF83
:10184400304300080010024000127A0000093D00F5
:10185400002800F0A08070B50D460446524B1B686A
:1018640003F007038B420BD24F4A136823F007039C
:101874000B431360136803F007038B4240F08D8021
:10188400236813F0020F17D013F0040F04D0474A53
:10189400536843F4E0635360236813F0080F04D0E3
:1018A400424A536843F460535360404A536823F0F8
:1018B400F003A1680B435360236813F0010F31D088
:1018C4006368012B20D0022B25D0384A126812F00D
:1018D400020F64D035494A6822F0030213434B6077
:1018E400FFF748FD0646314B5B6803F00C03626862
:1018F400B3EB820F16D0FFF73DFD801B41F2883316
:101904009842F0D9032045E0284A126812F4003FB7
:10191400E0D101203EE0254A126812F0007FD9D1BF
:10192400012037E0204B1B6803F00703AB420AD9C0
:101934001D4A136823F007032B431360136803F055
:101944000703AB422DD1236813F0040F06D0174AC6
:10195400536823F4E063E1680B435360236813F096
:10196400080F07D0114A536823F46053216943EAEE
:10197400C1035360FFF736FF0C4B5B68C3F30313DB
:101984000B4AD35CD8400B4B18600B4B1868FFF71D
:10199400ADFC002070BD012070470120FAE7012052
:1019A400F8E70120F6E700BF0020024000100240E3
:1019B40044430008400400203C040020014B186804
:1019C400704700BF4004002008B5FFF7F7FF044B41
:1019D4005B68C3F30223034AD35CD84008BD00BF4D
:1019E400001002405443000808B5FFF7E7FF044B1A
:1019F4005B68C3F3C223034AD35CD84008BD00BF6D
:101A0400001002405443000870B582B004460368D5
:101A140013F0010F34D03E4BDB6913F0805F47D1E4
:101A24003B4BDA6942F08052DA61DB6903F08053A0
:101A34000193019B0125374B1B6813F4807F39D038
:101A4400334B1B6A13F4407311D0626802F4407282
:101A54009A420CD02E4A136A23F440702E49012670
:101A64000E6000260E60106213F0010F36D1284A72
:101A7400136A23F4407361680B431362002D3ED153
:101A8400236813F0020F06D0214A536823F440431D
:101A9400A1680B435360236813F0100F34D01C4A21
:101AA400536823F4800361690B43536000202CE0E6
:101AB4000025C0E7174A136843F480731360FFF7E7
:101AC40059FC0646134B1B6813F4807FB8D1FFF70B
:101AD40051FC801B6428F5D9032016E0FFF74AFC6B
:101AE40006460B4B1B6A13F0020FC0D1FFF742FCF2
:101AF400801B41F288339842F3D9032005E0D3696F
:101B040023F08053D361BBE7002002B070BD00BF57
:101B140000100240007000404004424210B586B0FC
:101B240004463D4B0FCB0DF1180C0CE90F0040F2AD
:101B34000123ADF80430601E0F2866D8DFE800F0FA
:101B4400385A653265656535656565656565650839
:101B5400324B5A68186810F0807057D0C2F3834330
:101B640006A90B4413F8100C12F4803F16D02B4B2B
:101B74005B68C3F340430B4413F8142C284BB3FBAA
:101B8400F2F300FB03F0254B5B6813F4800F3DD1A7
:101B94004000244BA3FB0030400837E0224B03FBFA
:101BA40000F0F0E7FFF71EFE30E0FFF71BFE2DE02C
:101BB4001A4B1B6A40F202321A40B2F5817F27D0D9
:101BC40003F44073B3F5007F04D0B3F5407F09D02C
:101BD40000201BE0114A526A12F0020FF5D049F6B8
:101BE400404013E00D4B186810F400300ED04FF253
:101BF40024400BE0FFF7F8FE084B5B68C3F3813326
:101C040001335B00B0FBF3F000E0002006B010BD30
:101C14004FF40040FAE700BF3043000800100240D0
:101C240000127A00ABAAAAAA00093D00F0B482B05F
:101C340000252C46ABE0854FBB4210D007D9844F1A
:101C4400BB420CD007F58037BB4208D013E0A7F5A0
:101C54008017BB4203D007F57027BB4207D18B68BE
:101C6400002B60D0012B59D04261082503E0A7F571
:101C74008017BB42F3D0FF2E57D88446FF2E57D887
:101C8400A200DCF800300F27974023EA070305FA87
:101C940002F21343CCF800304B6813F0805F75D028
:101CA4006C4B9A6942F001029A619B6903F001034B
:101CB4000193019BA208971C674B53F827C004F0BB
:101CC40003039F000F23BB402CEA030C634B984291
:101CD40034D003F58063984200F0948003F5806368
:101CE400984200F0918003F58063984200F08E8062
:101CF40003F58063984200F08B8003F5806398427B
:101D04001AD006231BE0CD68B5E7CD680435B2E7E9
:101D1400CD680835AFE7CD680C35ACE7026108251E
:101D2400A9E70025A7E70425A5E700F1040CA5E72A
:101D3400A4F108029200A4E7052300E00023BB40BD
:101D440043EA0C030232444F47F822304B6813F441
:101D5400803F5FD0424A1368334313604B6813F4E7
:101D6400003F5DD03E4A5368334353604B6813F4DD
:101D7400801F5BD03A4A9368334393604B6813F4F3
:101D8400001F59D0364AD3681E43D66001340B680D
:101D940033FA04F256D00122A24003EA020632EAE0
:101DA4000303F3D14B68122B3FF645AF122B3FF6DA
:101DB40062AF01A757F823F0631C00080B1D00084D
:101DC400151D0008271D00087B1C00087B1C00084B
:101DD4007B1C00087B1C00087B1C00087B1C000883
:101DE4007B1C00087B1C00087B1C00087B1C000873
:101DF4007B1C00087B1C00087B1C00080F1D0008CE
:101E04001B1D000801239AE7022398E7032396E7A2
:101E1400042394E7124A136823EA060313609DE738
:101E24000F4A536823EA060353609FE70C4A9368FA
:101E340023EA06039360A1E7094AD36823EA060666
:101E4400D660A3E702B0F0BC704700BF00002210C8
:101E54000000311000100240000001400008014061
:101E64000004014008B590F82130022B03D004236C
:101E74008363012008BD0268136823F00E03136016
:101E84000268136823F00103136003684B4A93420A
:101E94004ED9783A934224D01432934230D014323B
:101EA40093422FD0143293422FD0143293422FD026
:101EB400143293422FD0143293422FD002F562721F
:101EC40093422ED0143293422DD0143293422CD00C
:101ED4001432934202D04FF4803203E04FF4805224
:101EE40000E00122364B5A60012380F821300023A0
:101EF40080F82030436B002B5ED098470020B9E770
:101F04001022EFE74FF48072ECE74FF48052E9E7D8
:101F14004FF48032E6E74FF48012E3E74FF080722B
:101F2400E0E70122DEE71022DCE74FF48072D9E714
:101F3400244A934224D01432934225D0143293423B
:101F440024D01432934224D01432934224D0143235
:101F5400934224D01432934224D002F56272934205
:101F640023D01432934222D01432934221D014321B
:101F7400934202D04FF4803203E04FF4805200E0E9
:101F84000122114B5A60AFE71022FAE74FF4807236
:101F9400F7E74FF48052F4E74FF48032F1E74FF45F
:101FA4008012EEE74FF08072EBE70122E9E710229E
:101FB400E7E74FF48072E4E700205BE7800002402B
:101FC400000402400800024000000240074AD368AF
:101FD40023F4E0631B041B0C000200F4E0600343E1
:101FE40043F0BF6343F40033D360704700ED00E077
:101FF40030B4174BDB68C3F30223C3F10704042C8A
:1020040028BF04241D1D062D18D9033B4FF0FF35AE
:1020140005FA04F421EA0401994005FA03F322EADB
:102024000303194300280BDB0901C9B200F1604026
:1020340000F5614080F8001330BC70470023E5E7E9
:1020440000F00F000901C9B2024B1954F4E700BFB4
:1020540000ED00E014ED00E0002807DB00F01F02B3
:10206400400901239340024A42F82030704700BFE0
:1020740000E100E00138B0F1807F0AD2064B5860DD
:10208400064AF02182F823100020986007221A6083
:1020940070470120704700BF10E000E000ED00E051
:1020A400014B01221A60704720000E4230B40268CE
:1020B4009469A5B2D369916988B2854205D0D06983
:1020C40080B240EA014030BC704798B240EA044014
:1020D400F9E70368186A5B6A9BB243EA00407047F9
:1020E4000023092803D901330A38C0B2F9E71B01D8
:1020F400DBB218437047030903EB830300F00F00BE
:1021040000EB4300C0B2704710F0030F14D10D4B25
:10211400A3FB00235B09642202FB13039BB26BB98C
:10212400084BA3FB0023DB094FF4C87202FB130026
:1021340080B228B901207047002070470120704701
:10214400002070471F85EB5110B400F5FA64022992
:1021540022D801EB4103C1EBC3011F4BA3FB0113C5
:1021640002EB5303234400F2CF7003EB90031B4AAA
:10217400A2FB0020A3EB501303EBD0130433184845
:10218400A0FB03201A1A00EB52008008C0EBC00029
:10219400181AC0B210BC704701EB4103C1EBC30174
:1021A4000D4BA3FB011302EB5303234403EB9403F2
:1021B4000A4AA2FB0424A3EB541303EBD413023303
:1021C4000748A0FB03201A1A00EB52008008C0EB5A
:1021D400C000181ADDE700BF398EE3381F85EB51C4
:1021E400254992242DE9F84380460F4690F80F9034
:1021F400447B857B002603E01E2D1FD80135013664
:10220400BE423DD2012CF7D0032CF5D0052CF3D0DF
:10221400072CF1D0082CEFD00A2CEDD00C2CEBD0ED
:10222400042C15D0062C13D0092C11D00B2C0FD054
:10223400022CE4D11B2D12D80135E0E70C2C02D07E
:1022440001340125DBE709F1010901252C46D6E714
:102254001D2D01D80135D2E701340125CFE71C2D0E
:1022640004D01D2DCBD101340125C8E71FFA89F014
:10227400FFF74AFF08B10135C1E701340125BEE784
:1022840088F80F90E1B288F80D10EAB288F80E20B1
:102294004846FFF759FF88F80C00BDE8F88338B5C5
:1022A4000446FFF767F8054623685A6812F0200FC2
:1022B40007D1FFF75FF8401BB0F57A7FF4D903200C
:1022C40004E05A6842F010025A60002038BD38B564
:1022D40004460268536823F010035360FFF74AF87A
:1022E400054623685B6813F0200F07D1FFF742F817
:1022F400401BB0F57A7FF4D9032000E0002038BDFC
:1023040038B505460C46FFF7CAFF08B1012038BDB1
:102314002B68220C9A612B68A4B2DC612846FFF773
:10232400D6FF0028F3D00120F1E738B505460C4666
:10233400FFF7B5FF08B1012038BD2B68220C1A62E3
:102344002B68A4B25C622846FFF7C1FF0028F3D0D3
:102354000120F1E770B5002857D00C460546002946
:1023640055D0037C012B54D00123037402234374FE
:10237400BAB908784B78C3EB03139B004FF461623E
:1023840002FB00338C781C4421462846FFF7B8FF33
:102394000646C8B104236B7400232B74012630460F
:1023A40070BD0878FFF7A7FE4FF4616606FB00F6E0
:1023B4006078FFF7A0FEC0EB001006EB8006A07863
:1023C400FFF799FE3418DFE72A68536823F0050302
:1023D40053602846FFF77DFEB0F1FF3F01D08442F1
:1023E40004D801236B7400232B74D8E700F5A831BB
:1023F40001F5C0712846FFF798FF0028F1D00423A7
:102404006B7400232B740126C9E70126C7E7012654
:10241400C5E70226C3E7000000286FD02DE9F84382
:102424000C461546064600296AD003685B6813F01B
:10243400040F02D00120BDE8F883FFF737FE0746FA
:10244400334BA3FB0023DB0A4FF4616202FB13024C
:102454003049A1FB02014809C1F347116170C0EB87
:102464000010A2EB8002A2702B4A974210D823706E
:10247400002D4BD02078FFF733FE20706078FFF7F3
:102484002FFE6070A078FFF72BFEA0700020D2E72B
:10249400224AA2FB03284FEA181808EB4802A3EBD0
:1024A400C20323703046FFF714FE8146B0F1FF3FAC
:1024B40003D0874217D2A0EB0709194800FB18770D
:1024C40039463046FFF71CFFE0B9B9F1FF3F0DD0A4
:1024D40009EB07013046FFF728FFA8B9414630460B
:1024E400FFF780FEC4E74FF0FF39E6E74946304680
:1024F400FFF71BFF0028F1D001209CE70120704763
:10250400012098E7012096E7012094E7002092E754
:10251400C5B3A291898888887F510100ABAAAAAA71
:102524008051010000285AD038B50D4604460029D0
:1025340057D0037C012B56D0012303740223437428
:10254400BAB9CB78C3734B7843738B788373A27B0C
:10255400617BE07BFFF7F8FD207328702046FFF7CE
:10256400A5FD224B984211D80123637400202074E6
:1025740038BDC878FFF7BFFDE0736878FFF7BBFD8F
:102584006073A878FFF7B7FDA073E0E7184DA5FBCB
:1025940000352D0C174B03FB150529462046FFF784
:1025A400AFFE28B104236374002323740120DFE702
:1025B4002046FFF78EFDB0F1FF3FD5D08542D3D939
:1025C40000F5A83101F5C0712046FFF7AEFE0028E2
:1025D400CAD004236374002323740120C8E70120B4
:1025E40070470120C4E70220C2E700BF8F5F0100EB
:1025F40007452EC2805101002DE9F04182B000232D
:10260400ADF804308DF8063000B30C461746054685
:10261400F1B11A4601A9FFF7FFFE0646E8B92B7B84
:102624002370E87BE07095F80D8084F80180AD7B21
:10263400A57077B1FFF754FDE0704046FFF750FDF9
:1026440060702846FFF74CFDA07002E0012600E010
:102654000126304602B0BDE8F0810126F9E7C0B199
:1026640038B505460268536823F008035360FEF743
:1026740081FE04462B685B6813F0080F07D1FEF750
:1026840079FE001BB0F57A7FF4D9032000E0002026
:1026940038BD012070470000002857D010B504460B
:1026A400437C4BB1022363742046FFF7D8FF38B153
:1026B40004236374012010BD0374FDF7EDFEF1E7FC
:1026C4002046FFF7ECFD60BB2268536823F0070344
:1026D4005360A36823B11E4A136B23F001031363F1
:1026E4001B4AD36A23F46073A1680B43D362626804
:1026F400B2F1FF3F19D021688B6823F00F0343EA3E
:1027040012438B602168CB681B0C1B0492B21343E9
:10271400CB602046FFF7DBFD88B1042363740120FE
:10272400C9E7042363740120C5E70120FFF7F6F924
:1027340008B1421EDFE7042363740120BBE70023D2
:10274400E37301236373A3736374B4E701207047D5
:10275400006C00407047704703681A6812F0010F5C
:102764001BD010B504465A6812F0010F0FD05B68F5
:1027740013F0040F0CD0FFF7EEFF23686FF0040290
:102784005A600423637423686FF001025A6010BD19
:10279400FFF7E0FF01236374F5E77047890001F157
:1027A400804101F5D84192B20A607047890001F175
:1027B400804101F5D841086880B270470268D36847
:1027C40043F00103D3600268936803F00703062B08
:1027D40003D0136843F0010313600020704770476F
:1027E40070477047704710B5044603681A6912F0C1
:1027F400020F11D0DA6812F0020F0DD06FF002024E
:102804001A610123037703689B6913F0030F70D0E7
:10281400FFF7E6FF0023237723681A6912F0040FF9
:1028240012D0DA6812F0040F0ED06FF004021A61AD
:102834000223237723689B6913F4407F5FD02046EB
:10284400FFF7CEFF0023237723681A6912F0080FDD
:1028540012D0DA6812F0080F0ED06FF008021A6175
:10286400042323772368DB6913F0030F4ED020463B
:10287400FFF7B6FF0023237723681A6912F0100FBD
:1028840012D0DA6812F0100F0ED06FF010021A6135
:10289400082323772368DB6913F4407F3DD0204667
:1028A400FFF79EFF0023237723681A6912F0010FB4
:1028B40003D0DA6812F0010F36D123681A6912F0D6
:1028C400800F03D0DA6812F0800F34D123681A69BC
:1028D40012F0400F03D0DA6812F0400F32D12368AF
:1028E4001A6912F0200F03D0DA6812F0200F30D1E9
:1028F40010BDFFF774FF2046FFF773FF8AE72046F9
:10290400FFF76DFF2046FFF76CFF9BE72046FFF7BC
:1029140066FF2046FFF765FFACE72046FFF75FFF41
:102924002046FFF75EFFBDE76FF001021A61204603
:10293400FDF7EAFEC1E76FF080021A61204600F05D
:1029440099F8C3E76FF040021A612046FFF74AFF87
:10295400C5E76FF020021A61204600F08AF8C7E745
:102964000368244A904212D002F5006290420ED0CD
:10297400B0F1804F0BD0A2F59832904207D002F507
:102984008062904203D002F58062904203D123F02A
:1029940070034A681343174A904212D002F500624A
:1029A40090420ED0B0F1804F0BD0A2F598329042F5
:1029B40007D002F58062904203D002F58062904213
:1029C40003D123F44073CA68134323F080034A6994
:1029D400134303608B68C3620B688362054B9842A0
:1029E40003D003F50063984201D10B69036301230B
:1029F40043617047002C0140B0B110B5044690F813
:102A04003D3063B1022384F83D30214651F8040B74
:102A1400FFF7A6FF012384F83D30002010BD80F8A5
:102A24003C30FDF751FEEDE70120704790F83C3053
:102A3400012B1CD070B4012680F83C60022380F87E
:102A44003D3002685568936825F070050C682C4386
:102A540023F080054B682B4354600268936080F830
:102A64003D60002380F83C30184670BC704702205B
:102A74007047704770470268D36823F49073D3603B
:102A84000268536923F001035361202380F83A302C
:102A9400704790F83930DBB2212B01D00220704707
:102AA4008368B3F5805F17D0036A5A1C02621A78F0
:102AB40003685A60C38C9BB2013B9BB2C3844BB97D
:102AC4000268D36823F08003D3600268D36843F0BC
:102AD4004003D36000207047036A1B880268C3F375
:102AE4000803536003691BB9036A02330362E1E715
:102AF400036A01330362DDE738B5044602681369EB
:102B040023F44053C1680B43136183680269134380
:102B140042691A430168CB6823F4B05323F00C03D1
:102B24001343CB600268536923F4407381690B43F8
:102B340053610268214B9A421FD0FEF745FF00EB18
:102B4400800000EB800063689B00B0FBF3F01C4D39
:102B5400A5FB00325109642303FB11031B0132332B
:102B6400A5FB03235B0903F0F00202EB011203F05F
:102B74000F03216813448B6038BDFEF735FF00EB6B
:102B8400800000EB800063689B00B0FBF3F00C4D09
:102B9400A5FB00325109642303FB11031B013233EB
:102BA400A5FB03235B0903F0F00202EB011203F01F
:102BB4000F03216813448B60DEE700BF0038014037
:102BC4001F85EB5158B310B5044690F839300BB358
:102BD400242384F839302268D36823F40053D36063
:102BE4002046FFF789FF2268136923F49043136199
:102BF4002268536923F02A0353612268D36843F49B
:102C04000053D3600020E063202384F8393084F833
:102C14003A3010BD80F83830FDF7AEFDD8E701201A
:102C2400704790F83A30DBB2202B20D109B312B3AD
:102C340090F83830012B20D081628285C285002330
:102C4400C363222280F83A2080F838300168CA68C9
:102C540042F48072CA6001684A6942F001024A6122
:102C64000168CA6842F02002CA6018467047022010
:102C74007047012070470120704702207047704759
:102C840008B50168CA6822F04002CA60202280F8B0
:102C94003920FFF7F4FF002008BD08B590F83A305A
:102CA400DBB2222B46D18368B3F5805F0FD0036972
:102CB4000BBB03685A68836A591C81621A70C38DFE
:102CC4009BB2013B9BB2C385F3B1002008BD826A6D
:102CD400036943B903685B68C3F308031380836A19
:102CE40002338362EBE703685B68DBB21380836AB9
:102CF40001338362E3E703685B68826A511C816283
:102D040003F07F031370DAE70268D36823F020032B
:102D1400D3600268D36823F48073D3600268536974
:102D240023F001035361202380F83A30FDF7D4FFE8
:102D34000020CBE70220C9E77047000010B5044625
:102D440002681368D168526913F00F0005D113F0BB
:102D5400200F02D011F0200F13D128B112F001027C
:102D640013D111F4907F10D113F0800F02D011F021
:102D7400800F69D113F0400F02D011F0400F67D1DA
:102D840010BD2046FFF789FFFAE713F0010F06D0C4
:102D940011F4807F03D0E06B40F00100E06313F096
:102DA400040F04D01AB1E06B40F00200E06313F0AA
:102DB400020F04D01AB1E06B40F00400E06313F09A
:102DC400080F04D01AB1E26B42F00802E263E26B2E
:102DD400002AD5D013F0200F02D011F0200F21D1FA
:102DE40023685B6903F04003E26B12F0080F00D123
:102DF40023B32046FFF73FFE23685A6912F0400FC1
:102E040018D05A6922F040025A61636B73B1124AB6
:102E14005A63606BFFF726F80028B1D0606B436BF0
:102E24009847ADE72046FFF738FFD9E72046FFF77C
:102E340083FFA5E72046FFF77FFFA1E72046FFF7C2
:102E44007BFF0023E3639BE72046FFF722FE97E71F
:102E54002046FFF715FF93E7612E000808B5406A86
:102E64000023C385C384FFF767FF08BD0F4B1A68AF
:102E740042F001021A6059680D4A0A405A601A6801
:102E840022F0847222F480321A601A6822F48022BA
:102E94001A605A6822F4FE025A604FF41F029A60C4
:102EA400044B4FF000629A60704700BF001002406C
:102EB4000000FFF800ED00E0002103E00B4B5B583D
:102EC400435004310A480B4B42189A42F6D30A4A3B
:102ED40002E0002342F8043B084B9A42F9D3FFF77F
:102EE400C5FF00F00FF8FDF7D3F97047FC43000865
:102EF40000000020A8040020A8040020D807002017
:102F0400FEE7000070B500260C4D0D4C641BA410A8
:102F1400A64209D100F0CEFF00260A4D0A4C641BDC
:102F2400A410A64205D170BD55F8043B984701365C
:102F3400EEE755F8043B98470136F2E7F4430008FE
:102F4400F4430008F4430008F84300080A4491429B
:102F540000F1FF3300D1704710B511F8014B9142D5
:102F640003F8014FF9D110BD03460244934200D146
:102F7400704703F8011BF9E70FB40A4B13B51C683B
:102F840024B1A36913B9204600F066F805AB2046C6
:102F9400049AA168019300F081F902B0BDE81040E1
:102FA40004B0704744040020002310B50446C0E96F
:102FB4000033C0E90433836081814366C281836145
:102FC400194608225C30FFF7CFFF054B2462636289
:102FD400044BA362044BE362044B236310BD00BFA4
:102FE4004D3800086F380008A7380008CB380008AF
:102FF400014900F0AFB800BFA53B000870B56825D3
:103004004A1E55430E4605F1740100F0C5F8044606
:1030140040B10021C0E900160C30A06005F168023F
:10302400FFF7A2FF204670BD014800F0B3B800BF0F
:10303400D0070020014800F0AEB800BFD007002040
:10304400014800F0A7B800BFCB070020014800F0FA
:10305400A2B800BFCB07002010B50446FFF7F0FF6D
:10306400A3691BB1BDE81040FFF7F0BFC4E91233F8
:103074002365134B134A1B68A262A34208BF0123B2
:10308400204608BFA36100F01FF86060204600F0EE
:103094001BF8A060204600F017F800220421E0602D
:1030A4006068FFF781FF01220921A068FFF77CFF18
:1030B40002221221E068FFF777FF0123A361D1E721
:1030C4005C430008F52F0008F8B50746FFF7ACFF8E
:1030D4001E4B1E68B36913B93046FFF7BDFF48366F
:1030E400D6E90134013B03D533680BB33668F7E7FF
:1030F400B4F90C50D5B9164B04F15800E360656679
:1031040000F047F8FFF796FF08222946C4E9015565
:10311400C4E904552560A56104F15C00FFF724FFB0
:10312400C4E90D55C4E912552046F8BD6834D9E701
:1031340004213846FFF762FF044630600028D5D1E9
:10314400FFF778FF0C233B60EEE700BF5C43000809
:103154000100FFFF2DE9F84306468846002700F1E9
:103164004804D4E90195B9F1010905D52468002C76
:10317400F7D13846BDE8F883AB89012B07D9B5F9F7
:103184000E30013303D029463046C0470743683523
:10319400E9E7704770477047F8B5CD1C25F0030583
:1031A40008350C2D38BF0C25002D064601DBA9423D
:1031B40003D90C2333600020F8BD00F0B1FD214990
:1031C4000A6814469CB9204F3B6823B9214630460F
:1031D40000F02AFB38602946304600F025FB431CEA
:1031E40023D10C233046336000F0A0FDE3E72368CD
:1031F4005B1B17D40B2B03D923601C44256004E00C
:103204006368A2420CBF0B605360304600F08EFD31
:1032140004F10B00231D20F00700C21ACCD01B1AA6
:10322400A350C9E722466468CCE7C41C24F0030415
:10323400A042E3D0211A304600F0F6FA0130DDD185
:10324400CFE700BFC8060020CC060020936810B466
:10325400013B002B936007DA9469A34201DB0A293E
:1032640002D110BC00F034BB1368581C10601970F4
:10327400084610BC7047F8B506460F461446D518E4
:10328400AC4201D1002007E03A46304614F8011B55
:10329400FFF7DCFF431CF3D1F8BD00002DE9F04F2C
:1032A4000D461446984606469DB018B183690BB97D
:1032B400FFF7D2FE894B9D421BD175686B6ED9070F
:1032C40005D4AB899A0502D4A86DFFF763FFAB89D7
:1032D4001B0701D52B69EBB92946304600F05CFB8E
:1032E400C0B16B6EDC070ED54FF0FF301DB0BDE8EA
:1032F400F08F7B4B9D4201D1B568DFE7794B9D424E
:1033040008BFF568DAE7AB899805EDD4A86DFFF737
:1033140042FFE9E70023099320238DF82930302365
:103324004FF00109CDF80C80DFF8BC818DF82A300C
:1033340023469A4613F8012B0AB1252AF9D1BAEB90
:10334400040B0BD05B46224629463046FFF793FF19
:10335400013000F0AA80099A5A4409929AF8003080
:10336400002B00F0A28000234FF0FF32CDE90523AB
:103374000AF1010A049307938DF853301A935446C3
:10338400052214F8011B584800F0BCFC049AD8B973
:10339400D10644BF20238DF85330130744BF2B2399
:1033A4008DF853309AF800302A2B15D0544600205B
:1033B4004FF00A0C079A214611F8013B303B092BC8
:1033C4004ED9B0B1079214E0A0EB080309FA03F355
:1033D4001343A2460493D2E7039B191D1B68039170
:1033E400002BBBBF5B4242F0020207930793B8BFB6
:1033F400049223782E2B0CD163782A2B35D1039B8E
:1034040002341A1D1B680392002BB8BF4FF0FF3320
:103414000593DFF8E4A003225046217800F072FC03
:1034240040B14023A0EB0A0003FA00F0049B0134EE
:103434000343049314F8011B06222C488DF828102A
:1034440000F060FC00283FD0294B1BBB039B0733D3
:1034540023F0070308330393099B3B44099367E76D
:103464000C4601200CFB0232A5E700234FF00A0CA6
:10347400194601340593204610F8012B303A092AE5
:1034840003D9002BC5D00591C3E7044601230CFBE7
:103494000121F0E703AB00932A463046154B04A9FB
:1034A400AFF300800746781CD6D16B6ED90705D4DC
:1034B400AB899A0502D4A86DFFF76DFEAB895B0654
:1034C4003FF512AF099811E703AB00932A46304643
:1034D400084B04A900F082F8E4E700BF8043000829
:1034E400A043000860430008C0430008CA43000822
:1034F400000000007B320008C64300082DE9F047B5
:10350400164699468A680B6907469342B8BF134624
:10351400336091F843200C46DDF820800AB1013372
:1035240033602368990642BF3368023333602568E9
:1035340015F0060506D104F1190AE36832689B1AEE
:10354400AB4228DC94F84320131E226818BF0123E1
:1035540092062DD44946384604F14302C04701304F
:1035640020D02368E56803F00603042B18BF002568
:1035740032684FF00006A36808BFAD1A226908BF7D
:1035840025EAE5759342C4BF9B1AED181A34B54277
:103594001AD1002008E00123524649463846C04764
:1035A400013003D14FF0FF30BDE8F0870135C4E7A7
:1035B4003020E11881F843005A1C94F84510224445
:1035C400023382F84310C5E70123224649463846B0
:1035D400C0470130E6D00136D9E700002DE9FF47A6
:1035E4000C46277E9146782F80469A460C9904F122
:1035F400430207D8622F0AD8002F00F0D980582F31
:1036040000F0A48004F1420684F842703AE0A7F185
:103614006303152BF6D801A050F823F0793600087F
:103624008D360008093600080936000809360008F6
:10363400093600088D3600080936000809360008E6
:1036440009360008093600089B370008BD36000813
:103654007D3700080936000809360008BD37000820
:1036640009360008BD360008093600080936000886
:10367400853700080B6804F142061A1D1B680A60AE
:1036840084F842300123A4E0256808682E0600F17E
:1036940004030AD505680B60002D03DA2D236D425F
:1036A40084F843300A235E4819E015F0400F05689A
:1036B4000B6018BF2DB2EFE70B682568181D086072
:1036C400280601D51D6802E06906FBD51D886F2F09
:1036D4000CBF08230A235248002184F8431066686B
:1036E400002EA8BF2168A660A4BF21F004012160B8
:1036F4000DB9002E4DD01646B5FBF3F103FB11575F
:10370400C75D06F8017D2F46BB420D46F4D9082B50
:103714000BD12368DF0708D5236961689942DEBFAE
:10372400302306F8013C06F1FF36921B22614B461A
:1037340021464046CDF800A003AAFFF7DFFE013082
:103744004CD14FF0FF3004B0BDE8F087344884F822
:1037540045700E68236856F8045B1F060E6014D586
:10376400D90744BF43F0200323601DB9236823F025
:10377400200323601023AFE7236843F02003236072
:103784007823284884F84530E3E75E0648BFADB2A5
:10379400E6E71646BBE70B6826681D1D60690D60E9
:1037A40035061B6801D5186002E07106FBD5188048
:1037B400002316462361BAE70B681A1D0A601E68C7
:1037C40000213046626800F09DFA08B1801B6060F9
:1037D40063682361002384F84330A8E732464946EE
:1037E40040462369D0470130ABD023689B0713D4EC
:1037F400E068039B9842B8BF1846A4E70123324609
:1038040049464046D04701309BD00135E3680399CF
:103814005B1AAB42F2DCEBE7002504F11906F5E78D
:10382400D1430008E243000838B50023054D04469F
:1038340008462B6000F028FB431C02D12B6803B11F
:10384400236038BDD407002010B50C46B1F90E1022
:1038540000F0BEFA0028ABBF636DA3891B1823F4E4
:103864008053ACBF6365A38110BD2DE9F0411F46B1
:103874008B890546DB050C46164605D50223002236
:10388400B1F90E1000F0C8F9A389324623F480532D
:10389400A38128463B46B4F90E10BDE8F04100F080
:1038A40069B810B50C46B1F90E1000F0B5F9431C17
:1038B400A38915BF606523F4805343F48053A38127
:1038C40018BFA38110BDB1F90E1000F0D3B80000E9
:1038D400F8B50E461446054618B183690BB9FFF7CF
:1038E400BBFB214B9C422BD16C68A369A360A389C9
:1038F4001A072FD523696BB323692068F6B2C01A5F
:1039040063693746834204DC2146284600F048F9BF
:1039140030BBA3680130013BA36023685A1C2260BA
:103924001E706369834204D0A389DB0706D50A2E7F
:1039340004D12146284600F033F988B93846F8BD49
:103944000A4B9C4201D1AC68CFE7094B9C4208BFAB
:10395400EC68CAE72146284600F01EF80028CBD0C0
:103964004FF0FF37EAE700BF80430008A043000898
:103974006043000838B50446084611460022054D48
:103984002A601A4600F08EFA431C02D12B6803B158
:10399400236038BDD4070020324B70B51D6806463D
:1039A4000C4625B1AB6913B92846FFF755FB2E4BDE
:1039B4009C420FD16C68A389B4F90C2019072CD44C
:1039C400DD0611D40923336042F040034FF0FF3089
:1039D400A3813EE0254B9C4201D1AC68EBE7244B2C
:1039E4009C4208BFEC68E6E7580712D5616B41B109
:1039F40004F14403994202D0304600F09DF90023BB
:103A04006363A38923F02403A381002363602369F0
:103A14002360A38943F00803A38123694BB9A389D5
:103A240003F42073B3F5007F03D02146304600F041
:103A340029F9A089B4F90C2010F001030AD000235D
:103A4400A36063695B42A361236943B910F08000FA
:103A5400BAD170BD810758BF6369A360F4E7002041
:103A6400F7E700BF4404002080430008A043000897
:103A74006043000838B50023054D044608462B6012
:103A840000F0DAF9431C02D12B6803B1236038BD7E
:103A9400D40700208A892DE9F041054610070C4619
:103AA40058D44B68002B05DC0B6C002B02DC002087
:103AB400BDE8F081E66A002EF9D0002312F48052AA
:103AC4002F682B6032D0606DA3895A0705D56368CF
:103AD400C01A636B0BB1236CC01A00230246E66A5A
:103AE4002846216AB047431CA38906D129681D29A9
:103AF4002CD82A4ACA40D60728D5002262602269F7
:103B0400D904226004D5421C01D12B6803B9606535
:103B1400616B2F600029CAD004F14403994202D09A
:103B2400284600F009F900206063C1E7216A0123F7
:103B34002846B047411CC7D12B68002BC4D01D2B8D
:103B440001D0162B01D12F60B1E7A38943F04003C4
:103B5400A381ADE70F69002FA9D0930718BF0023F5
:103B64000E6808BF4B69A6EB07080F608B60B8F1BD
:103B7400000F9CDD43463A462846216AA66AB047B0
:103B8400002806DCA3894FF0FF3043F04003A381F3
:103B94008EE70744A8EB0008E9E700BF01004020D6
:103BA40038B50B6905460C4613B90025284638BDBF
:103BB40018B183690BB9FFF74FFA144B9C421BD120
:103BC4006C68B4F90C30002BEFD0626ED00704D4CB
:103BD400990502D4A06DFFF7DDFA28462146FFF7C8
:103BE40059FF636E0546DA07E0D4A3899B05DDD44B
:103BF400A06DFFF7D0FAD9E7054B9C4201D1AC6820
:103C0400DFE7044B9C4208BFEC68DAE78043000816
:103C1400A04300086043000838B50446084611462E
:103C24000022054D2A601A4600F01EF9431C02D1F9
:103C34002B6803B1236038BDD407002070B50E464D
:103C4400B1F90E10144600291D4696B007DA002378
:103C54002B60B3891A0610D44FF480630EE06A46D1
:103C640000F0C8F80028F2DB019A02F47042A2F5D1
:103C740000535A425A412A60EEE740230020236051
:103C840016B070BD8B8973B59D0706460C4607D5E3
:103C940004F14703236023610123636102B070BD13
:103CA4006A4601ABFFF7CAFF009905463046FFF7A5
:103CB40073FA48B9B4F90C309A05EFD423F003032E
:103CC40043F00203A381E3E70D4BB362A3892060B1
:103CD40043F08003A381009B20616361019B5BB17E
:103CE4003046B4F90E1000F097F828B1A38923F0F8
:103CF400030343F00103A381A0890543A581CDE714
:103D0400F52F0008034610B5C9B202449342184681
:103D140001D1002003E0047801338C42F6D110BDB8
:103D24000148FFF737BA00BFCC0700200148FFF76E
:103D340032BA00BFCC07002038B50546002943D06D
:103D440051F8043C0C1F002BB8BFE418FFF7E8FF40
:103D54001E4A1368104633B9636014602846BDE8F0
:103D64003840FFF7E3BFA3420AD92168621893429F
:103D740001BF1A685B685218226063600460EDE753
:103D84001A465B680BB1A342FAD911685018A042D5
:103D94000BD120680144501883421160DED11868A9
:103DA4005B68014411605360D8E702D90C232B608F
:103DB400D4E7206821188B4201BF19685B68091891
:103DC400216063605460C9E738BD00BFC8060020A5
:103DD40038B50446084611460022054D2A601A46A5
:103DE40000F04AF8431C02D12B6803B1236038BDAC
:103DF400D407002038B50023064D04460846114672
:103E04002B6000F021F8431C02D12B6803B123601E
:103E140038BD00BFD407002038B50023054D044643
:103E240008462B6000F018F8431C02D12B6803B13C
:103E3400236038BDD40700205822024B4FF0FF30D6
:103E44001A607047D40700205822024B4FF0FF300D
:103E54001A607047D40700205822024B00201A60D1
:103E6400704700BFD40700205822024B4FF0FF30A8
:103E74001A607047D40700205822024B4FF0FF30DD
:103E84001A607047D4070020044A05491368002BC0
:103E940008BF0B461844106018467047D00600202F
:103EA400D80700205822024B4FF0FF301A607047A9
:103EB400D4070020F8B500BFF8BC08BC9E46704784
:0C3EC400F8B500BFF8BC08BC9E46704773
:103ED00000000000000000000000000000000000E2
:103EE00000000000000000000000000000000000D2
:103EF00000000000000000000000000000000000C2
:103F000000000000000000000000000000000000B1
:103F100000000000000000000000000000000000A1
:103F200000000000000000E0F8FEFF3FFFFFFEC0C1
:103F30000000000000000000000000000000000081
:103F40000000000000000000000000000000000071
:103F50000000000000000000000000000000000061
:103F600000000000808080808080808080000000D1
:103F70000000000000000000000000000000000041
:103F800000808080C0C0C0C0C0C0800000000000B1
:103F90000000000000000000000000000000000021
:103FA00000000000C0FCFEFF1F0F0000011F7FFF8C
:103FB000FEF0C00000000000000000000000000053
:103FC00000000000000000000000000000000000F1
:103FD0000000000000000000000000000000E0F809
:103FE000FEFF3F0F0707070303030707070707073E
:103FF000FFFFFFC0C0E0E0F0F0F078787C3C3C1EB2
:104000001F1F0F07030303030F1F3FFEFCF8C00031
:1040100000000000000000000000000000000000A0
:104020000080FCFEFF1F0F018080808080808081E7
:104030008FFFFFFFF0E08080808080808080808024
:1040400080808080808080808080808080000000F0
:104050000000000000000000000000000000FFFF62
:10406000FF00000000000000000000000000000051
:104070000707070303010101000000000000000022
:10408000000000000000000000000001071FFFFF0B
:10409000FC000000FEFEFEFC9C1C1C1C1C1C1C1CCE
:1040A000FCFFFF3F1F1F1F3F3F7F3F13030303031F
:1040B000030303037FFFFFF303030383C3C3E3E3AC
:1040C000F3FBFB7B3F3F3F1F0F0F07030300000085
:1040D0000000000000000000000000000000FFFFE2
:1040E000FF000000000000000000000000000000D1
:1040F00000000000000000000000000000000000C0
:104100000000000000000000000000000000FFFFB1
:10411000FF00000000030F3F3F3E387878F8F0FFC3
:10412000FFFFE7C0C08000000000000000000000AA
:1041300080C0E0F0F0FF7FFFFEFE9F0F0F0703013E
:10414000010000000000000000000000000000006E
:1041500000000000000000000000000000007FFFE1
:10416000FFF0E0C080000000000000000000000040
:10417000000000000000000000000000000000003F
:1041800000000000000000000080C0E0F8FFFF3FDA
:10419000070000000000000000000000F0FFFF7FAB
:1041A0000101038787CFDFFFFEFCFCF8FCFEFFFF69
:1041B000EFC7C783010000030F1FFFFEFCE0C00034
:1041C00000000000000000000000000000000000EF
:1041D00000000000000000000000000000000000DF
:1041E0000103070F1F3F7E7CF8F0F0E0E0C0C080C5
:1041F000800000000000000000000000000000003F
:10420000000080C0E0F0F8FC7E3F1F0F03010000BB
:104210000000000000000000000000007F7F7F7CA5
:104220003E3F1F0F070703030101000000000101CB
:1042300003070F1F1F3E3C3C7878F8F1FFFFFFFE9D
:10424000FCC00000000000000000000000000000B2
:10425000000000000000000000000000000000005E
:104260000000000000000000000001010303070F30
:104270000F0F1E3E3E3C387878F8FCFEFE1E0E0EF8
:104280000F0F0F07070301000000000000000000EF
:10429000000000000000000000000000000000001E
:1042A000000000000000000000000000000000000E
:1042B00000000000000000000000000001030707EC
:1042C0000F0F0F00000000000000000000000000C1
:1042D000253032642F253032642F253032640D0AA8
:1042E00000000000E88B8FE59FB9E4BDA9E6889146
:1042F000E788B1E4BDA0EFBC81000000E9AB98E520
:1043000087AFE790A6E58AA0E6B2B9EFBC810000CE
:1043100031323334353637383930000061736466F2
:1043200067686A6B6C0000002E0000003A00000015
:1043300002030405060708090A0B0C0D0E0F1010E6
:104340000000000000000000000000000102030463
:1043500006070809000000000102030448040020C9
:10436000000000000000000000000000000000004D
:10437000000000000000000000000000000000003D
:10438000000000000000000000000000000000002D
:10439000000000000000000000000000000000001D
:1043A000000000000000000000000000000000000D
:1043B00000000000000000000000000000000000FD
:1043C000232D302B2000686C4C00656667454647FE
:1043D0000030313233343536373839414243444581
:1043E00046003031323334353637383961626364F0
:0443F00065660000FE
:0443F40009020008B2
:0443F800E5010008D3
:1043FC003000E010080810E000000F102020100F13
:10440C00003100001010F8000000000020203F20B8
:10441C00200032007008080808F000003028242220
:10442C002130003300300808088870000018202163
:10443C0021221C00340000804030F80000000605EA
:10444C0024243F24243500F88888880808000019A3
:10445C00202020110E003600E0108888900000000B
:10446C000F112020201F003700180808886818003A
:10447C000000003E010000003800708808088870B9
:10448C0000001C222121221C003900F00808081011
:10449C00E0000001122222110F00610000808080D8
:1044AC0000000000192424123F20006210F000804C
:1044BC0080000000003F112020110E00630000005E
:1044CC008080800000000E1120202011006400006C
:1044DC0080808090F000001F202020103F2065007D
:1044EC0000808080800000001F2424242417006694
:1044FC00008080E0909020000020203F20200000D1
:10450C00670000808080808000006B94949493609E
:10451C00006810F0008080800000203F2100002007
:10452C003F206900809898000000000020203F2068
:10453C002000006A000000809898000000C0808075
:10454C00807F00006B10F0000080808000203F24F2
:10455C0006293020006C001010F80000000000202C
:10456C00203F202000006D80808080808080002093
:10457C003F20003F20003F6E808000808080000044
:10458C00203F210000203F206F00008080808000B1
:10459C0000001F202020201F0070808000808000E1
:1045AC00000080FF912020110E007100000080801F
:1045BC00008000000E11202091FF8072808080000E
:1045CC008080800020203F212000010073000080AB
:1045DC0080808080000033242424241900740080FF
:1045EC0080E0808000000000001F202010007580FB
:1045FC0080000000808000001F202020103F2076CB
:10460C00808080008080800000030C300C03000050
:10461C00778080008080008080010E300C07380687
:10462C00017800808080008080000020310E2E31C7
:10463C00200079808080000080808000818678183E
:10464C000601007A00808080808080000021302C60
:10465C00222130003A000000C0C000000000000021
:10466C0030300000002E0000000000000000003080
:10467C003000000000000000E9AB980004040404C2
:10468C00F49495969494F4040404040000FE02023D
:10469C007A4A4A4A4A4A7A0282FE0000E587AF000B
:1046AC005E50505F5050DE00FE0202FE0000000023
:1046BC00007E4222221293601F00003F404078008F
:1046CC00E790A6008484FC84844064544C474C548A
:1046DC00E444400010301F0808001F11111F4080D7
:1046EC007F000000E58AA000101010FF1010F000F1
:1046FC0000F8080808F800008040300F40807F0068
:10470C00007F2020207F0000E6B2B9001060028CF0
:10471C0000F0101010FF101010F0000004047E01C7
:10472C0000FF4242427F424242FF0000EFBC810048
:10473C00000000FE0000000000000000000000006F
:10474C00000000330000000000000000000000002A
:10475C00E88B8F00044444445F44F44444445FC4F5
:10476C000404040000108E40201807004080403FD5
:10477C0000010E00E59FB900202020FF202080942E
:10478C00A48586A4948480001030100F080800FCC7
:10479C004444444444FC0000E4BDA9008060F80794
:1047AC0000FE029292F2929202FE00000000FF00C4
:1047BC00807F001F00FF101F007FE000E688910043
:1047CC0020242424FE23222020FF20222CA02000A1
:1047DC00000848847F02414020130C142241F80049
:1047EC00E788B10080642C342424EC322222322E4F
:1047FC0023A260000041219189874D552525554DF7
:10480C0081808000E4BDA000008060F80740201883
:10481C000F08C80808281800010000FF00100C033E
:10482C0040807F000106180001000000100000000D
:10483C000024F4004804002000000000804300081D
:10484C00A0430008604300080000000000000000C6
:10485C00000000000000000000000000000000004C
:10486C00000000000000000000000000000000003C
:10487C00000000000000000000000000000000002C
:10488C00000000000000000000000000000000001C
:08489C00000000000000000014
:0400000508002EBD04
:00000001FF
