:020000040800F2
:1000000000000120C5280008C1090008C309000834
:10001000C5090008C7090008C90900080000000058
:10002000000000000000000000000000CB090008F4
:10003000CD09000800000000CF090008D109000820
:100040000D2900080D2900080D290008D90900080C
:100050000D2900080D2900080D2900080D290008A8
:100060000D2900080D2900080D2900080D29000898
:100070000D2900080D2900080D2900080D29000888
:100080000D2900080D2900080D2900080D29000878
:100090000D2900080D2900080D2900080D29000868
:1000A0000D2900080D2900080D2900080D29000858
:1000B0000D2900080D2900080D2900080D29000848
:1000C0000D2900080D2900080D2900080D29000838
:1000D0000D290008E90900080D2900080D2900086C
:1000E0000D2900080D2900080D2900080D29000818
:1000F0000D2900080D2900080D2900080D29000808
:100100000D2900080D2900080D2900080D290008F7
:100110000D2900080D290008F90900080D2900081B
:100120000D2900080D2900080D2900080D290008D7
:1001300000000000000000000000000000000000BF
:1001400000000000000000000000000000000000AF
:10015000000000000000000000000000000000009F
:10016000000000000000000000000000000000008F
:10017000000000000000000000000000000000007F
:10018000000000000000000000000000000000006F
:10019000000000000000000000000000000000005F
:1001A000000000000000000000000000000000004F
:1001B000000000000000000000000000000000003F
:1001C000000000000000000000000000000000002F
:1001D000000000000000000000000000000000001F
:0401E0005FF8E0F1F3
:1001E40010B5054C237833B9044B13B10448AFF36D
:1001F40000800123237010BD44040020000000008F
:100204007429000808B5034B1BB103490348AFF335
:10021400008008BD00000000480400207429000884
:1002240070B596B00024119412940794089409941C
:100234000A940B94019402940394049405940694F0
:1002440005230C934FF480330D930E9401250F95E1
:1002540010950226139614934FF4E01315930CA8EB
:1002640000F04CFF0F230793089609944FF4806322
:100274000A930B94314607A801F07EF901954FF4D7
:100284008073029301A801F053FA16B070BD000008
:1002940000B5ADF20C4D4FF48062224902A802F081
:1002A40059FB00F0DDFEFFF7BBFF00F049F800F05A
:1002B40069F800F0B7F800F023FB00F01FF900F034
:1002C400A9F900F042FA184B01221A70174A0021CA
:1002D400084600F0E1FA164A0021022000F0DCFA98
:1002E4000A23144A0021042000F070FA0923124A58
:1002F4000021062000F06AFA40F6B83000F0D4FE7F
:1003040000F023FA02AB00937F2307220021084662
:1003140000F0D2FA40F6B83000F0C6FE00F015FA4C
:10032400D4E700BF8C290008600400208C2D00084D
:10033400A42D0008B82D0008C42D00087047000043
:1003440084B00F4B9A6942F010029A619A6902F0E4
:1003540010020192019A9A6942F004029A619A6920
:1003640002F004020292029A9A6942F008029A6127
:100374009B6903F008030393039B04B0704700BF19
:100384000010024008B50B480B4B03600B4B436055
:1003940000238360C3604FF4804202614361836140
:1003A400C361036200F0B0FC00B908BDFFF7C6FFEB
:1003B400FBE700BF6404002000540040A086010055
:1003C40010B586B000230293039304930593026847
:1003D400114B9A4201D006B010BD104CA36943F0F2
:1003E4000803A361A36903F008030093009BC023DF
:1003F4000293122303930323059302A9084801F0EF
:10040400A9FAE36943F40013E361E36903F4001315
:100414000193019BDFE700BF00540040001002403D
:10042400000C014000B583B00023ADF804308DF812
:10043400063000931B481C4A02604FF0FF324260B2
:10044400836001F07BFE18BB14238DF80430302345
:100454008DF8053000238DF80630012201A91148DA
:1004640001F085FDB8B902238DF8003006238DF81C
:10047400013023238DF8023000238DF8033001224C
:100484006946084801F0D4FD40B903B05DF804FBA7
:10049400FFF754FFD8E7FFF751FFE4E7FFF74EFFFC
:1004A400F3E700BFB8040020002800400268104BA6
:1004B4009A4200D0704700B583B001F085FC0D4B23
:1004C400DA6942F00062DA61DB6903F000630193E8
:1004D400019B094B01221A6000221146032001F0FE
:1004E4001BFC032001F04CFC03B05DF804FB00BFCF
:1004F40000280040001002403C04424200B583B092
:100504000023009301930F480F4A02604722426080
:10051400836044F62062C260836101F09FFF50B99A
:100524000023009301936946064801F0B1FF28B9FE
:1005340003B05DF804FBFFF701FFF1E7FFF7FEFEF0
:10054400F6E700BFCC0400200010004002680E4B08
:100554009A4200D0704700B583B003F50033DA69DE
:1005640042F01002DA61DB6903F010030193019B8E
:1005740000221146362001F0CFFB362001F000FCAA
:1005840003B05DF804FB00BF0010004002680B4B91
:100594001B689A4200D07047094A13780133DBB2D2
:1005A4001370322BF7D9074B1B78002BF3D113466A
:1005B40000221A70034B01221A70ECE7CC040020CD
:1005C400610400206004002010B586B08DF8170087
:1005D4000C4619B1402C0ED006B010BD6423029312
:1005E400012301930DF1170200920022782108489B
:1005F40000F05EFCEEE764230293012301930DF106
:100604001702009240227821014800F051FCE3E7F0
:100614006404002008B50021AE20FFF7D5FF0021B7
:100624000846FFF7D1FF00211020FFF7CDFF00217E
:100634004020FFF7C9FF0021B020FFF7C5FF0021CC
:100644008120FFF7C1FF00217F20FFF7BDFF0021BC
:10065400A120FFF7B9FF0021A620FFF7B5FF002175
:10066400A820FFF7B1FF00213F20FFF7ADFF0021D5
:10067400C820FFF7A9FF0021D320FFF7A5FF002121
:100684000846FFF7A1FF0021D520FFF79DFF0021B9
:100694008020FFF799FF0021D920FFF795FF002163
:1006A4002220FFF791FF0021DA20FFF78DFF0021C0
:1006B4001220FFF789FF0021DB20FFF785FF0021CF
:1006C4002020FFF781FF00218D20FFF77DFF00210F
:1006D4001420FFF779FF0021AF20FFF775FF08BD55
:1006E40010B50C4650380021C0B2FFF76DFF002151
:1006F40004F00F00FFF768FF2009002140F010000C
:10070400FFF762FF10BD70B50546002601E0013613
:10071400F6B2072E18D8A6F150000021C0B2FFF798
:1007240053FF00210846FFF74FFF00211020FFF779
:100734004BFF002414F0800FE9D140212846FFF735
:1007440043FF0134E4B2F5E770BD08B50020FFF7BC
:10075400DAFF08BDF8B506460F461546FFF7C0FF99
:10076400002405E04021285DFFF72EFF0134E4B2A8
:10077400072CF7D9701C3946C0B2FFF7B1FF00242B
:1007840007E004F108034021E85CFFF71DFF013492
:10079400E4B2072CF5D9F8BD38B50023252B08D8C9
:1007A40003EB0314084D2C5D944202D00133DBB2F9
:1007B400F4E7262B06D003EB0313034A1A44013251
:1007C400FFF7C8FF38BD00BF000000202DE9F0414D
:1007D40007460C4616469846002545450AD216F8A3
:1007E400012B21463846FFF7D7FF0834E4B2013520
:1007F400EDB2F2E7BDE8F081F8B506460F461546BE
:10080400FFF76EFF00240F2C06D84021285DFFF768
:10081400DBFE0134E4B2F6E7701C3946C0B2FFF7E0
:100824005FFF00240F2C08D804F110034021E85C7A
:10083400FFF7CAFE0134E4B2F4E7F8BD38B500238B
:1008440000E001330B2B19D803EBC304114D15F849
:1008540024501478A542F4D103EBC3040D4D05EBE9
:10086400840465785478A542EBD103EBC304094DA5
:1008740005EB8404A5789478A542E2D10C2B07D02B
:1008840003EBC303034A02EB83020432FFF7B4FF12
:1008940038BD00BF8802002070B506460C461546D8
:1008A4002B7843B12A4621463046FFF7C7FF103460
:1008B400E4B20335F4E770BD2DE9F84F804689466C
:1008C40092461E460A9F4FF0000B0FE00BF1010504
:1008D400402117F80B00FFF777FE0134E4B2AB4672
:1008E400B442F3D908F101085FFA88F8D04505D875
:1008F40049464046FFF7F4FE4C46F1E7BDE8F88F61
:1009040008B50A480A4B03604FF4E13343600023FF
:100914008360C36003610C2242618361C36101F09F
:1009240083FE00B908BDFFF709FDFBE70C050020B5
:100934000038014030B587B0002302930393049339
:10094400059302681B4B9A4201D007B030BD03F5F2
:1009540058439A6942F480429A619A6902F4804247
:100964000092009A9A6942F004029A619B6903F02A
:1009740004030193019B4FF4007302930223039336
:10098400032305930C4D02A9284600F0E3FF4FF41E
:100994008063029300240394049402A9284600F07F
:1009A400D9FF22462146252001F0B6F9252001F081
:1009B400E7F9CAE700380140000801407047FEE744
:1009C400FEE7FEE7FEE770477047704708B500F0A2
:1009D40059FB08BD08B5024801F010FC08BD00BF72
:1009E400B804002008B5024801F0ACFE08BD00BF01
:1009F4000C05002008B5024801F026FC08BD00BF24
:100A0400CC04002082B00E4B9A6942F001029A6134
:100A14009A6902F001020092009ADA6942F0805267
:100A2400DA61DB6903F080530193019B054A536843
:100A340023F0E06343F08063536002B0704700BF6B
:100A4400001002400000014003685A6912F4806FEC
:100A540001D1002070476FF480625A610023036360
:100A6400202280F83D2080F83E30026C42F00402DF
:100A7400026480F83C30012070472DE9F0410746BC
:100A84000D4690461E4622E000F008FB069BC01A65
:100A9400B04200D8DEB900233B63202287F83D2012
:100AA40087F83E303A6C42F020023A6487F83C30D2
:100AB40001201AE03B689C6925EA0404A4B2B4FA54
:100AC40084F46409A0450FD1B6F1FF3FDCD1C5F32E
:100AD4000743012BEED13B685C6925EA0404A4B208
:100AE400B4FA84F46409EDE70020BDE8F0812DE94F
:100AF400F04105460E46174698463DE01A6842F412
:100B040000721A602B686FF480625A6100232B63B1
:100B1400202285F83D2085F83E302A6C42F00402FC
:100B24002A6485F83C30012034E000F0B7FAA0EBE9
:100B34000800B84200D8FFB900232B63202285F8AF
:100B44003D2085F83E302A6C42F020022A6485F864
:100B54003C3001201EE02B689C6926EA0404A4B200
:100B6400003C18BF0124A4B12B685A6912F4806FA9
:100B7400C4D1B7F1FF3FD8D1C6F30743012BEAD163
:100B84002B685C6926EA0404A4B2003C18BF012463
:100B9400E9E70020BDE8F08170B504460D4616462D
:100BA40023685B6913F0800F1CD12046FFF74CFFCC
:100BB400D0B9B5F1FF3FF3D000F070FA801BA84222
:100BC40001D8002DECD100232363202284F83D209A
:100BD40084F83E30226C42F02002226484F83C30D7
:100BE400012000E0002070BD0120FCE72DE9F04366
:100BF40085B004460D46914698460C9E0D9F0368A9
:100C0400196841F4807119600097334600224FF04F
:100C14000111FFF732FF18B1012005B0BDE8F083E0
:100C2400236805F0FE051D613B46324620492046F7
:100C3400FFF75DFF08B10120EFE70023039323686A
:100C44005A6903929B690393039B3A4631462046B3
:100C5400FFF7A2FF38B9B8F1010F0FD123685FFA8B
:100C640089F61E61D9E7236C042B01D00120D4E757
:100C74002268136843F400731360F7E723684FEAAC
:100C840019221A613A4631462046FFF785FF20B9FA
:100C940023685FFA89F61E61BFE7236C042B01D039
:100CA4000120BAE72268136843F400731360F7E77E
:100CB4000200010070B504460D46164623685B69C0
:100CC40013F0040F1CD12046FFF7BEFED0B9B5F1D6
:100CD400FF3FF3D000F0E2F9801BA84201D8002DB9
:100CE400ECD100232363202284F83D2084F83E3095
:100CF400226C42F02002226484F83C30012000E09F
:100D0400002070BD0120FCE7002800F0C280F8B587
:100D1400044690F83D30002B6DD0242384F83D30F8
:100D24002268136823F00103136000F0E1FC626899
:100D34005A4B9A4264D85A4B98428CBF00230123E1
:100D4400002B40F0A880574DA5FB0035AF0C26685A
:100D5400716821F03F0141EA9541716021680B6A95
:100D640023F03F0365684D4A95424FD87A1C1343DC
:100D74000B622568E96921F44F4121F0FF016368A2
:100D8400464A93424CD801385B00B0FBF3F0013083
:100D940040F6FC73184278D0C0F30B030B43EB61AD
:100DA40021680B6823F0C003E269206A02431343FD
:100DB4000B6021688B6823F4034323F0FF0322694B
:100DC400E068024313438B602168CB6823F0FF0380
:100DD4006269A06902431343CB602268136843F03D
:100DE4000103136000202064202384F83D30206335
:100DF40084F83E00F8BD80F83C30FFF7E1FA8CE758
:100E0400294B98428CBF0023012399E74FF4967233
:100E140002FB07F2254DA5FB025292090132A6E717
:100E2400A268BAB9461E03EB4307B6FBF7F60136D0
:100E3400C6F30B06B6FA86F6760946BBC2B9421E5D
:100E440003EB4303B2FBF3F20132C2F30B0242F4AD
:100E54000043A3E7461E03EB830707EB8707B6FBB4
:100E6400F7F60136C6F30B06B6FA86F67609E4E71A
:100E7400421E03EB830303EB8303B2FBF3F2013261
:100E8400C2F30B0242F4404388E7042386E70123BC
:100E940084E7012070470120ACE700BFA086010071
:100EA4007F841E0083DE1B43FF083D00D34D621088
:100EB4002DE9F04383B004460F46904699460C9EB4
:100EC40000F0ECF8054694F83D00C0B2202803D0A9
:100ED400022003B0BDE8F0830095192301224B4999
:100EE4002046FFF7CAFD002840F0898094F83C3082
:100EF400012B00F08680012384F83C3023681A68B3
:100F040012F0010F03D11A6842F001021A6022683C
:100F1400136823F400631360212384F83D304023D5
:100F240084F83E30002323640A9B6362BDF82C30AE
:100F34006385638D2385364BE362019500964B46AA
:100F4400424639462046FFF751FE00285BD1238DE7
:100F5400002B35D02A4631462046FFF71DFE20BB24
:100F6400626A236812781A61616A4B1C6362228D7B
:100F7400013A92B22285638D9BB2013B9BB2638599
:100F84002368586910F0040FE1D0002ADFD04A78B2
:100F94001A61636A01336362238D013B2385638D88
:100FA4009BB2013B9BB26385D1E7236C042B01D038
:100FB40001208EE72268136843F400731360F7E797
:100FC4002A4631462046FFF775FE50B1236C042BA8
:100FD40001D001207DE72268136843F40073136095
:100FE400F7E72268136843F400731360202384F83E
:100FF4003D30002384F83E3084F83C3069E7022019
:1010040067E7022065E7012063E700BF02001000E4
:101014000000FFFF10B504460E4B18784FF47A73A6
:10102400B3FBF0F30C4A1068B0FBF3F000F0B6FE2B
:1010340068B90F2C01D901200AE0002221464FF0A3
:10104400FF3000F069FE054B1C60002000E0012029
:1010540010BD00BF38040020400400203C040020E0
:1010640008B5074A136843F010031360032000F027
:1010740041FE0020FFF7CEFFFFF7C4FC002008BDAF
:1010840000200240034A1168034B1B780B44136091
:10109400704700BF4C05002038040020014B18683D
:1010A400704700BF4C05002038B50446FFF7F6FF33
:1010B4000546B4F1FF3F02D0044B1B781C44FFF7F4
:1010C400EDFF401BA042FAD338BD00BF3804002016
:1010D40082B0084B1B68084AA2FB03235B0A00FB8F
:1010E40003F3019300BF019B5A1E0192002BF9D117
:1010F40002B0704740040020D34D6210002800F075
:10110400F18170B582B00446036813F0010F2CD04E
:10111400AA4B5B6803F00C03042B1DD0A74B5B6840
:1011240003F00C03082B12D06368B3F5803F41D061
:10113400002B55D103F1804303F504331A6822F4DC
:1011440080321A601A6822F480221A6037E09B4BBE
:101154005B6813F4803FE7D0984B1B6813F4003F9F
:1011640003D06368002B00F0BF81236813F0020FE3
:1011740075D0924B5B6813F00C0F5FD08F4B5B689C
:1011840003F00C03082B54D02369002B00F0898052
:101194008B4B01221A60FFF781FF0546874B1B68C2
:1011A40013F0020F74D1FFF779FF401B0228F5D921
:1011B40003209EE1814A136843F48033136063681B
:1011C40043B3FFF76BFF05467C4B1B6813F4003FEA
:1011D400CBD1FFF763FF401B6428F5D9032088E1D6
:1011E400B3F5A02F09D0754B1A6822F480321A6027
:1011F4001A6822F480221A60E1E703F18043A3F520
:101204003C331A6842F480221A601A6842F480322D
:101214001A60D4E7FFF742FF0546684B1B6813F4D6
:10122400003FA2D0FFF73AFF401B6428F5D9032002
:101234005FE1624B5B6813F4803FA5D15F4B1B6891
:1012440013F0020F03D02369012B40F04F815B4A56
:10125400136823F0F803616943EAC1031360236848
:1012640013F0080F32D0A369002B45D0554B01224F
:101274001A60FFF713FF0546504B5B6A13F0020F29
:1012840021D1FFF70BFF401B0228F5D9032030E1E1
:101294004A4A136823F0F803616943EAC1031360FF
:1012A400DDE7474B00221A60FFF7F8FE0546434B83
:1012B4001B6813F0020FD2D0FFF7F0FE401B022888
:1012C400F5D9032015E10120FFF702FF236813F08D
:1012D400040F00F09780394BDB6913F0805F1DD158
:1012E400364BDA6942F08052DA61DB6903F08053ED
:1012F4000193019B012512E0324B00221A60FFF793
:10130400CDFE05462D4B5B6A13F0020FDED0FFF7CE
:10131400C5FE401B0228F5D90320EAE000252A4B2C
:101324001B6813F4807F11D0E368012B22D0002BBB
:1013340038D103F1804303F504331A6A22F0010221
:101344001A621A6A22F004021A6218E01E4A13682A
:1013540043F480731360FFF7A1FE06461A4B1B6823
:1013640013F4807FE0D1FFF799FE801B6428F5D940
:101374000320BEE0114A136A43F001031362E368D9
:1013840073B3FFF78BFE06460C4B1B6A13F0020F78
:1013940037D1FFF783FE801B41F288339842F3D99B
:1013A4000320A6E0052B11D0044B1A6A22F0010297
:1013B4001A621A6A22F004021A62E0E7001002407C
:1013C4000000424280044242007000404D4B1A6AC1
:1013D40042F004021A621A6A42F001021A62CEE76B
:1013E400FFF75CFE0646474B1B6A13F0020F08D05A
:1013F400FFF754FE801B41F288339842F3D903204F
:1014040077E0E5B9E369002B72D03E4A526802F0F6
:101414000C02082A56D0022B17D03B4B00221A602C
:10142400FFF73CFE0446374B1B6813F0007F47D0A0
:10143400FFF734FE001B0228F5D9032059E0314A96
:10144400D36923F08053D361DCE72F4B00221A6069
:10145400FFF724FE05462B4B1B6813F0007F06D0D4
:10146400FFF71CFE401B0228F5D9032041E0236A44
:10147400B3F5803F1AD023494B6823F47413226ACE
:10148400606A024313434B601F4B01221A60FFF74B
:1014940005FE04461B4B1B6813F0007F0ED1FFF7BB
:1014A400FDFD001B0228F5D9032022E0154A5368EC
:1014B40023F40033A1680B435360DCE7002018E0F9
:1014C400002016E0012B16D00E4B5B6803F480312C
:1014D400226A914211D103F47013626A93420ED1CD
:1014E400002006E001207047012002E0012000E016
:1014F400002002B070BD0120FBE70120F9E70120C4
:10150400F7E700BF001002406000424286B0164B6D
:101514000FCB0DF1180C0CE90F0040F20123ADF8CC
:101524000430124B5B6803F00C02082A02D0104806
:1015340006B07047C3F38342624412F8102C13F4CC
:10154400803F0CD0094B5B68C3F34043634413F8FA
:10155400143C074800FB02F0B0FBF3F0E8E7054851
:1015640000FB02F0E4E700BFD02D000800100240A9
:1015740000127A0000093D00002800F0A08070B538
:101584000D460446524B1B6803F007038B420BD2F3
:101594004F4A136823F007030B431360136803F0E7
:1015A40007038B4240F08D80236813F0020F17D09D
:1015B40013F0040F04D0474A536843F4E0635360C4
:1015C400236813F0080F04D0424A536843F460536D
:1015D4005360404A536823F0F003A1680B435360FF
:1015E400236813F0010F31D06368012B20D0022B44
:1015F40025D0384A126812F0020F64D035494A687F
:1016040022F0030213434B60FFF748FD0646314BBB
:101614005B6803F00C036268B3EB820F16D0FFF72C
:101624003DFD801B41F288339842F0D9032045E008
:10163400284A126812F4003FE0D101203EE0254A16
:10164400126812F0007FD9D1012037E0204B1B68CB
:1016540003F00703AB420AD91D4A136823F00703BA
:101664002B431360136803F00703AB422DD12368A7
:1016740013F0040F06D0174A536823F4E063E168BB
:101684000B435360236813F0080F07D0114A5368C3
:1016940023F46053216943EAC1035360FFF736FF23
:1016A4000C4B5B68C3F303130B4AD35CD8400B4B5E
:1016B40018600B4B1868FFF7ADFC002070BD0120CB
:1016C40070470120FAE70120F8E70120F6E700BFA0
:1016D4000020024000100240E42D000840040020D5
:1016E4003C040020014B1868704700BF40040020F0
:1016F40008B5FFF7F7FF044B5B68C3F30223034A03
:10170400D35CD84008BD00BF00100240F42D00088F
:1017140008B5FFF7E7FF044B5B68C3F3C223034A32
:10172400D35CD84008BD00BF00100240F42D00086F
:1017340070B582B00446036813F0010F34D03E4BF9
:10174400DB6913F0805F47D13B4BDA6942F080528A
:10175400DA61DB6903F080530193019B0125374B68
:101764001B6813F4807F39D0334B1B6A13F4407326
:1017740011D0626802F440729A420CD02E4A136A65
:1017840023F440702E4901260E6000260E6010627C
:1017940013F0010F36D1284A136A23F440736168A9
:1017A4000B431362002D3ED1236813F0020F06D0C1
:1017B400214A536823F44043A1680B4353602368D0
:1017C40013F0100F34D01C4A536823F4800361696A
:1017D4000B43536000202CE00025C0E7174A136830
:1017E40043F480731360FFF759FC0646134B1B68E0
:1017F40013F4807FB8D1FFF751FC801B6428F5D91E
:10180400032016E0FFF74AFC06460B4B1B6A13F055
:10181400020FC0D1FFF742FC801B41F2883398428B
:10182400F3D9032005E0D36923F08053D361BBE7E8
:10183400002002B070BD00BF0010024000700040E4
:101844004004424210B586B004463D4B0FCB0DF127
:10185400180C0CE90F0040F20123ADF80430601EAF
:101864000F2866D8DFE800F0385A653265656535BB
:101874006565656565656508324B5A68186810F0DA
:10188400807057D0C2F3834306A90B4413F8100C9D
:1018940012F4803F16D02B4B5B68C3F340430B44D8
:1018A40013F8142C284BB3FBF2F300FB03F0254B85
:1018B4005B6813F4800F3DD14000244BA3FB003040
:1018C400400837E0224B03FB00F0F0E7FFF71EFE71
:1018D40030E0FFF71BFE2DE01A4B1B6A40F2023288
:1018E4001A40B2F5817F27D003F44073B3F5007F2B
:1018F40004D0B3F5407F09D000201BE0114A526A9E
:1019040012F0020FF5D049F6404013E00D4B186871
:1019140010F400300ED04FF224400BE0FFF7F8FE35
:10192400084B5B68C3F3813301335B00B0FBF3F016
:1019340000E0002006B010BD4FF40040FAE700BFFD
:10194400D02D00080010024000127A00ABAAAAAA07
:1019540000093D00F0B482B000252C46ABE0854F71
:10196400BB4210D007D9844FBB420CD007F5803757
:10197400BB4208D013E0A7F58017BB4203D007F59C
:101984007027BB4207D18B68002B60D0012B59D044
:101994004261082503E0A7F58017BB42F3D0FF2E70
:1019A40057D88446FF2E57D8A200DCF800300F2702
:1019B400974023EA070305FA02F21343CCF80030F8
:1019C4004B6813F0805F75D06C4B9A6942F001024A
:1019D4009A619B6903F001030193019BA208971C80
:1019E400674B53F827C004F003039F000F23BB4049
:1019F4002CEA030C634B984234D003F5806398427D
:101A040000F0948003F58063984200F0918003F520
:101A14008063984200F08E8003F58063984200F062
:101A24008B8003F5806398421AD006231BE0CD68AF
:101A3400B5E7CD680435B2E7CD680835AFE7CD68C2
:101A44000C35ACE702610825A9E70025A7E70425C2
:101A5400A5E700F1040CA5E7A4F108029200A4E7AD
:101A6400052300E00023BB4043EA0C030232444F49
:101A740047F822304B6813F4803F5FD0424A136822
:101A8400334313604B6813F4003F5DD03E4A536800
:101A9400334353604B6813F4801F5BD03A4A936816
:101AA400334393604B6813F4001F59D0364AD3680C
:101AB4001E43D66001340B6833FA04F256D0012277
:101AC400A24003EA020632EA0303F3D14B68122B65
:101AD4003FF645AF122B3FF662AF01A757F823F04C
:101AE4008B190008331A00083D1A00084F1A000821
:101AF400A3190008A3190008A3190008A3190008D2
:101B0400A3190008A3190008A3190008A3190008C1
:101B1400A3190008A3190008A3190008A3190008B1
:101B2400A3190008371A0008431A000801239AE78A
:101B3400022398E7032396E7042394E7124A1368E1
:101B440023EA060313609DE70F4A536823EA06035A
:101B540053609FE70C4A936823EA06039360A1E766
:101B6400094AD36823EA0606D660A3E702B0F0BCAC
:101B7400704700BF00002210000031100010024026
:101B840000000140000801400004014008B590F83D
:101B94002130022B03D004238363012008BD026893
:101BA400136823F00E0313600268136823F0010323
:101BB400136003684B4A93424ED9783A934224D037
:101BC4001432934230D0143293422FD014329342C1
:101BD4002FD0143293422FD0143293422FD0143288
:101BE40093422FD002F5627293422ED01432934264
:101BF4002DD0143293422CD01432934202D04FF49D
:101C0400803203E04FF4805200E00122364B5A60E8
:101C1400012380F82130002380F82030436B002B0F
:101C24005ED098470020B9E71022EFE74FF48072A6
:101C3400ECE74FF48052E9E74FF48032E6E74FF4E3
:101C44008012E3E74FF08072E0E70122DEE7102222
:101C5400DCE74FF48072D9E7244A934224D014324B
:101C6400934225D01432934224D01432934224D088
:101C74001432934224D01432934224D01432934227
:101C840024D002F56272934223D01432934222D0BC
:101C94001432934221D01432934202D04FF4803252
:101CA40003E04FF4805200E00122114B5A60AFE789
:101CB4001022FAE74FF48072F7E74FF48052F4E70A
:101CC4004FF48032F1E74FF48012EEE74FF0807268
:101CD400EBE70122E9E71022E7E74FF48072E4E73B
:101CE40000205BE78000024000040240080002403C
:101CF40000000240074AD36823F4E0631B041B0C72
:101D0400000200F4E060034343F0BF6343F4003394
:101D1400D360704700ED00E030B4174BDB68C3F3C9
:101D24000223C3F10704042C28BF04241D1D062D1F
:101D340018D9033B4FF0FF3505FA04F421EA0401F6
:101D4400994005FA03F322EA0303194300280BDB45
:101D54000901C9B200F1604000F5614080F8001348
:101D640030BC70470023E5E700F00F000901C9B259
:101D7400024B1954F4E700BF00ED00E014ED00E05D
:101D8400002807DB00F01F02400901239340024AA8
:101D940042F82030704700BF00E100E00138B0F1A4
:101DA400807F0AD2064B5860064AF02182F823103D
:101DB4000020986007221A6070470120704700BF16
:101DC40010E000E000ED00E0014B01221A607047D2
:101DD40020000E4230B402689469A5B2D3699169B7
:101DE40088B2854205D0D06980B240EA014030BC57
:101DF400704798B240EA0440F9E70368186A5B6ADE
:101E04009BB243EA00407047030903EB830300F0ED
:101E14000F0000EB4300C0B27047000010B400F59F
:101E2400FA64022922D801EB4103C1EBC3011F4B21
:101E3400A3FB011302EB5303234400F2CF7003EB23
:101E440090031B4AA2FB0020A3EB501303EBD01317
:101E540004331848A0FB03201A1A00EB5200800830
:101E6400C0EBC000181AC0B210BC704701EB4103AC
:101E7400C1EBC3010D4BA3FB011302EB530323443A
:101E840003EB94030A4AA2FB0424A3EB541303EBCD
:101E9400D41302330748A0FB03201A1A00EB5200A4
:101EA4008008C0EBC000181ADDE700BF398EE338A4
:101EB4001F85EB512549922438B50446FFF7EEF807
:101EC400054623685A6812F0200F07D1FFF7E6F899
:101ED400401BB0F57A7FF4D9032004E05A6842F03D
:101EE40010025A60002038BD38B5044602685368B1
:101EF40023F010035360FFF7D1F8054623685B68AD
:101F040013F0200F07D1FFF7C9F8401BB0F57A7F13
:101F1400F4D9032000E0002038BD38B505460C464E
:101F2400FFF7CAFF08B1012038BD2B68220C9A6163
:101F34002B68A4B2DC612846FFF7D6FF0028F3D053
:101F44000120F1E738B505460C46FFF7B5FF08B1A7
:101F5400012038BD2B68220C1A622B68A4B25C6283
:101F64002846FFF7C1FF0028F3D00120F1E770B540
:101F7400002857D00C460546002955D0037C012B78
:101F840054D00123037402234374BAB908784B78FC
:101F9400C3EB03139B004FF4616202FB00338C78A4
:101FA4001C4421462846FFF7B8FF0646C8B104235F
:101FB4006B7400232B740126304670BD0878FFF73C
:101FC40023FF4FF4616606FB00F66078FFF71CFF01
:101FD400C0EB001006EB8006A078FFF715FF34185D
:101FE400DFE72A68536823F0050353602846FFF7A8
:101FF40004FFB0F1FF3F01D0844204D801236B7485
:1020040000232B74D8E700F5A83101F5C0712846E8
:10201400FFF798FF0028F1D004236B7400232B747E
:102024000126C9E70126C7E70126C5E70226C3E75B
:1020340000285AD038B50D460446002957D0037CF1
:10204400012B56D00123037402234374BAB9CB780D
:10205400C3734B7843738B788373A27B617BE07B80
:10206400FFF7DCFE207328702046FFF7B3FE224BF7
:10207400984211D8012363740020207438BDC878B5
:10208400FFF7C2FEE0736878FFF7BEFE6073A878BE
:10209400FFF7BAFEA073E0E7184DA5FB00352D0C41
:1020A400174B03FB150529462046FFF736FF28B1D9
:1020B40004236374002323740120DFE72046FFF721
:1020C4009CFEB0F1FF3FD5D08542D3D900F5A831AD
:1020D40001F5C0712046FFF735FF0028CAD004235C
:1020E4006374002323740120C8E701207047012092
:1020F400C4E70220C2E700BF8F5F010007452EC27C
:1021040080510100C0B138B505460268536823F018
:1021140008035360FEF7C2FF04462B685B6813F0A4
:10212400080F07D1FEF7BAFF001BB0F57A7FF4D988
:10213400032000E0002038BD01207047002857D05C
:1021440010B50446437C4BB1022363742046FFF769
:10215400D9FF38B104236374012010BD0374FEF762
:10216400A5F9F1E72046FFF7A7FE60BB2268536894
:1021740023F007035360A36823B11E4A136B23F0B3
:10218400010313631B4AD36A23F46073A1680B43EE
:10219400D3626268B2F1FF3F19D021688B6823F0E3
:1021A4000F0343EA12438B602168CB681B0C1B04AA
:1021B40092B21343CB602046FFF796FE88B1042306
:1021C40063740120C9E7042363740120C5E7012077
:1021D400FFF738FB08B1421EDFE7042363740120D4
:1021E400BBE70023E37301236373A3736374B4E74E
:1021F40001207047006C00407047704703681A68FC
:1022040012F0010F1BD010B504465A6812F0010FEA
:102214000FD05B6813F0040F0CD0FFF7EEFF2368B8
:102224006FF004025A600423637423686FF00102A0
:102234005A6010BDFFF7E0FF01236374F5E77047B0
:10224400704770477047704710B5044603681A69B1
:1022540012F0020F11D0DA6812F0020F0DD06FF0F5
:1022640002021A610123037703689B6913F0030FC9
:1022740070D0FFF7E6FF0023237723681A6912F072
:10228400040F12D0DA6812F0040F0ED06FF00402BB
:102294001A610223237723689B6913F4407F5FD07C
:1022A4002046FFF7CEFF0023237723681A6912F034
:1022B400080F12D0DA6812F0080F0ED06FF008027F
:1022C4001A61042323772368DB6913F0030F4ED0CC
:1022D4002046FFF7B6FF0023237723681A6912F01C
:1022E400100F12D0DA6812F0100F0ED06FF0100237
:1022F4001A61082323772368DB6913F4407F3DD0F8
:102304002046FFF79EFF0023237723681A6912F003
:10231400010F03D0DA6812F0010F36D123681A696D
:1023240012F0800F03D0DA6812F0800F34D12368E2
:102334001A6912F0400F03D0DA6812F0400F32D15C
:1023440023681A6912F0200F03D0DA6812F0200F04
:1023540030D110BDFFF774FF2046FFF773FF8AE703
:102364002046FFF76DFF2046FFF76CFF9BE72046F2
:10237400FFF766FF2046FFF765FFACE72046FFF74F
:102384005FFF2046FFF75EFFBDE76FF001021A61B1
:102394002046FEF7FBF8C1E76FF080021A61204681
:1023A40000F09AF8C3E76FF040021A612046FFF785
:1023B4004AFFC5E76FF020021A61204600F08BF84F
:1023C400C7E700000368244A904212D002F5006275
:1023D40090420ED0B0F1804F0BD0A2F598329042CB
:1023E40007D002F58062904203D002F580629042E9
:1023F40003D123F070034A681343174A904212D062
:1024040002F5006290420ED0B0F1804F0BD0A2F5DD
:102414009832904207D002F58062904203D002F5D0
:102424008062904203D123F44073CA68134323F0BB
:1024340080034A69134303608B68C3620B68836239
:10244400054B984203D003F50063984201D10B6910
:102454000363012343617047002C0140B0B110B500
:10246400044690F83D3063B1022384F83D302146A0
:1024740051F8040BFFF7A6FF012384F83D30002038
:1024840010BD80F83C30FEF761F8EDE7012070479D
:1024940090F83C30012B1CD070B4012680F83C60CD
:1024A400022380F83D3002685568936825F0700572
:1024B4000C682C4323F080054B682B43546002685E
:1024C400936080F83D60002380F83C30184670BC6F
:1024D400704702207047704770470268D36823F43E
:1024E4009073D3600268536923F00103536120237E
:1024F40080F83A30704790F83930DBB2212B01D0A4
:10250400022070478368B3F5805F17D0036A5A1CB2
:1025140002621A7803685A60C38C9BB2013B9BB277
:10252400C3844BB90268D36823F08003D360026884
:10253400D36843F04003D36000207047036A1B88CC
:102544000268C3F30803536003691BB9036A0233C7
:102554000362E1E7036A01330362DDE738B5044649
:102564000268136923F44053C1680B431361836801
:102574000269134342691A430168CB6823F4B053D8
:1025840023F00C031343CB600268536923F44073B4
:1025940081690B4353610268214B9A421FD0FFF7B4
:1025A400A7F800EB800000EB800063689B00B0FBA1
:1025B400F3F01C4DA5FB00325109642303FB110306
:1025C4001B013233A5FB03235B0903F0F00202EB8A
:1025D400011203F00F03216813448B6038BDFFF729
:1025E40097F800EB800000EB800063689B00B0FB71
:1025F400F3F00C4DA5FB00325109642303FB1103D6
:102604001B013233A5FB03235B0903F0F00202EB49
:10261400011203F00F03216813448B60DEE700BF4F
:10262400003801401F85EB5158B310B5044690F8AB
:1026340039300BB3242384F839302268D36823F467
:102644000053D3602046FFF789FF2268136923F4FF
:10265400904313612268536923F02A03536122686B
:10266400D36843F40053D3600020E063202384F84C
:10267400393084F83A3010BD80F83830FEF75AF912
:10268400D8E701207047704708B50168CA6822F08E
:102694004002CA60202280F83920FFF7F4FF0020AE
:1026A40008BD704708B590F83A30DBB2222B46D10A
:1026B4008368B3F5805F0FD003690BBB03685A6866
:1026C400836A591C81621A70C38D9BB2013B9BB211
:1026D400C385F3B1002008BD826A036943B9036866
:1026E4005B68C3F308031380836A02338362EBE7F6
:1026F40003685B68DBB21380836A01338362E3E7B8
:1027040003685B68826A511C816203F07F03137063
:10271400DAE70268D36823F02003D3600268D36841
:1027240023F48073D3600268536923F00103536177
:10273400202380F83A30FFF7B4FF0020CBE70220D3
:10274400C9E7704710B5044602681368D168526936
:1027540013F00F0005D113F0200F02D011F0200F59
:1027640013D128B112F0010213D111F4907F10D1CA
:1027740013F0800F02D011F0800F69D113F0400FD5
:1027840002D011F0400F67D110BD2046FFF78AFF39
:10279400FAE713F0010F06D011F4807F03D0E06B49
:1027A40040F00100E06313F0040F04D01AB1E06BB1
:1027B40040F00200E06313F0020F04D01AB1E06BA2
:1027C40040F00400E06313F0080F04D01AB1E26B88
:1027D40042F00802E263E26B002AD5D013F0200F26
:1027E40002D011F0200F21D123685B6903F040036C
:1027F400E26B12F0080F00D123B32046FFF76DFE01
:1028040023685A6912F0400F18D05A6922F0400226
:102814005A61636B73B1124A5A63606BFFF7B6F97E
:102824000028B1D0606B436B9847ADE72046FFF7B3
:1028340039FFD9E72046FFF784FFA5E72046FFF7D5
:1028440080FFA1E72046FFF77CFF0023E3639BE7BB
:102854002046FFF750FE97E72046FFF715FF93E762
:102864006928000808B5406A0023C385C384FFF7BC
:1028740068FF08BD0F4B1A6842F001021A605968DC
:102884000D4A0A405A601A6822F0847222F4803297
:102894001A601A6822F480221A605A6822F4FE022E
:1028A4005A604FF41F029A60044B4FF000629A6022
:1028B400704700BF001002400000FFF800ED00E088
:1028C400002103E00B4B5B58435004310A480B4B87
:1028D40042189A42F6D30A4A02E0002342F8043B23
:1028E400084B9A42F9D3FFF7C5FF00F00FF8FDF744
:1028F400CFFC7047042E0008000000204404002090
:102904004404002050050020FEE7000070B50026B6
:102914000C4D0D4C641BA410A64209D100F028F8FC
:1029240000260A4D0A4C641BA410A64205D170BDB2
:1029340055F8043B98470136EEE755F8043B9847B1
:102944000136F2E7FC2D0008FC2D0008FC2D0008E0
:10295400002E00080A44914200F1FF3300D1704771
:1029640010B511F8014B914203F8014FF9D110BD94
:10297400F8B500BFF8BC08BC9E467047F8B500BF68
:08298400F8BC08BC9E46704738
:10298C00000000000000000000000000000000003B
:10299C00000000000000000000000000000000002B
:1029AC00000000000000000000000000000000001B
:1029BC00000000000000000000000000000000000B
:1029CC0000000000000000000000000000000000FB
:1029DC0000000000000000E0F8FEFF3FFFFFFEC01B
:1029EC0000000000000000000000000000000000DB
:1029FC0000000000000000000000000000000000CB
:102A0C0000000000000000000000000000000000BA
:102A1C00000000008080808080808080800000002A
:102A2C00000000000000000000000000000000009A
:102A3C0000808080C0C0C0C0C0C08000000000000A
:102A4C00000000000000000000000000000000007A
:102A5C0000000000C0FCFEFF1F0F0000011F7FFFE5
:102A6C00FEF0C000000000000000000000000000AC
:102A7C00000000000000000000000000000000004A
:102A8C000000000000000000000000000000E0F862
:102A9C00FEFF3F0F07070703030307070707070797
:102AAC00FFFFFFC0C0E0E0F0F0F078787C3C3C1E0B
:102ABC001F1F0F07030303030F1F3FFEFCF8C0008B
:102ACC0000000000000000000000000000000000FA
:102ADC000080FCFEFF1F0F01808080808080808141
:102AEC008FFFFFFFF0E0808080808080808080807E
:102AFC00808080808080808080808080800000004A
:102B0C000000000000000000000000000000FFFFBB
:102B1C00FF000000000000000000000000000000AA
:102B2C00070707030301010100000000000000007B
:102B3C00000000000000000000000001071FFFFF64
:102B4C00FC000000FEFEFEFC9C1C1C1C1C1C1C1C27
:102B5C00FCFFFF3F1F1F1F3F3F7F3F130303030378
:102B6C00030303037FFFFFF303030383C3C3E3E305
:102B7C00F3FBFB7B3F3F3F1F0F0F070303000000DE
:102B8C000000000000000000000000000000FFFF3B
:102B9C00FF0000000000000000000000000000002A
:102BAC000000000000000000000000000000000019
:102BBC000000000000000000000000000000FFFF0B
:102BCC00FF00000000030F3F3F3E387878F8F0FF1D
:102BDC00FFFFE7C0C0800000000000000000000004
:102BEC0080C0E0F0F0FF7FFFFEFE9F0F0F07030198
:102BFC0001000000000000000000000000000000C8
:102C0C0000000000000000000000000000007FFF3A
:102C1C00FFF0E0C080000000000000000000000099
:102C2C000000000000000000000000000000000098
:102C3C0000000000000000000080C0E0F8FFFF3F33
:102C4C00070000000000000000000000F0FFFF7F04
:102C5C000101038787CFDFFFFEFCFCF8FCFEFFFFC2
:102C6C00EFC7C783010000030F1FFFFEFCE0C0008D
:102C7C000000000000000000000000000000000048
:102C8C000000000000000000000000000000000038
:102C9C000103070F1F3F7E7CF8F0F0E0E0C0C0801E
:102CAC008000000000000000000000000000000098
:102CBC00000080C0E0F0F8FC7E3F1F0F0301000015
:102CCC000000000000000000000000007F7F7F7CFF
:102CDC003E3F1F0F07070303010100000000010125
:102CEC0003070F1F1F3E3C3C7878F8F1FFFFFFFEF7
:102CFC00FCC000000000000000000000000000000C
:102D0C0000000000000000000000000000000000B7
:102D1C000000000000000000000001010303070F89
:102D2C000F0F1E3E3E3C387878F8FCFEFE1E0E0E51
:102D3C000F0F0F0707030100000000000000000048
:102D4C000000000000000000000000000000000077
:102D5C000000000000000000000000000000000067
:102D6C000000000000000000000000000103070745
:102D7C000F0F0F000000000000000000000000001A
:102D8C00E88B8FE59FB9E4BDA9E68891E788B1E4AB
:102D9C00BDA0EFBC81000000E9AB98E587AFE790E0
:102DAC00A6E58AA0E6B2B9EFBC810000313233341B
:102DBC0035363738393000006173646667686A6B82
:102DCC006C00000002030405060708090A0B0C0D31
:102DDC000E0F1010000000000000000000000000AA
:102DEC0001020304060708090000000001020304A5
:042DFC0009020008C0
:042E0000E5010008E0
:102E04003000E010080810E000000F102020100F20
:102E1400003100001010F8000000000020203F20C6
:102E2400200032007008080808F00000302824222E
:102E34002130003300300808088870000018202171
:102E440021221C00340000804030F80000000605F8
:102E540024243F24243500F88888880808000019B1
:102E6400202020110E003600E01088889000000019
:102E74000F112020201F0037001808088868180048
:102E84000000003E010000003800708808088870C7
:102E940000001C222121221C003900F0080808101F
:102EA400E0000001122222110F00610000808080E6
:102EB40000000000192424123F20006210F000805A
:102EC40080000000003F112020110E00630000006C
:102ED4008080800000000E1120202011006400007A
:102EE40080808090F000001F202020103F2065008B
:102EF40000808080800000001F24242424170066A2
:102F0400008080E0909020000020203F20200000DE
:102F1400670000808080808000006B9494949360AC
:102F2400006810F0008080800000203F2100002015
:102F34003F206900809898000000000020203F2076
:102F44002000006A000000809898000000C0808083
:102F5400807F00006B10F0000080808000203F2400
:102F640006293020006C001010F80000000000203A
:102F7400203F202000006D808080808080800020A1
:102F84003F20003F20003F6E808000808080000052
:102F9400203F210000203F206F00008080808000BF
:102FA40000001F202020201F0070808000808000EF
:102FB400000080FF912020110E007100000080802D
:102FC400008000000E11202091FF8072808080001C
:102FD4008080800020203F212000010073000080B9
:102FE400808080800000332424242419007400800D
:102FF40080E0808000000000001F20201000758009
:1030040080000000808000001F202020103F2076D8
:10301400808080008080800000030C300C0300005E
:10302400778080008080008080010E300C07380695
:10303400017800808080008080000020310E2E31D5
:10304400200079808080000080808000818678184C
:103054000601007A00808080808080000021302C6E
:10306400222130003A000000C0C00000000000002F
:1030740030300000002E000000000000000000308E
:103084003000000000000000E9AB980004040404D0
:10309400F49495969494F4040404040000FE02024B
:1030A4007A4A4A4A4A4A7A0282FE0000E587AF0019
:1030B4005E50505F5050DE00FE0202FE0000000031
:1030C400007E4222221293601F00003F404078009D
:1030D400E790A6008484FC84844064544C474C5498
:1030E400E444400010301F0808001F11111F4080E5
:1030F4007F000000E58AA000101010FF1010F000FF
:1031040000F8080808F800008040300F40807F0075
:10311400007F2020207F0000E6B2B9001060028CFE
:1031240000F0101010FF101010F0000004047E01D5
:1031340000FF4242427F424242FF0000EFBC810056
:10314400000000FE0000000000000000000000007D
:103154000000003300000000000000000000000038
:10316400E88B8F00044444445F44F44444445FC403
:103174000404040000108E40201807004080403FE3
:1031840000010E00E59FB900202020FF202080943C
:10319400A48586A4948480001030100F080800FCD5
:1031A4004444444444FC0000E4BDA9008060F807A2
:1031B40000FE029292F2929202FE00000000FF00D2
:1031C400807F001F00FF101F007FE000E688910051
:1031D40020242424FE23222020FF20222CA02000AF
:1031E400000848847F02414020130C142241F80057
:1031F400E788B10080642C342424EC322222322E5D
:1032040023A260000041219189874D552525554D04
:1032140081808000E4BDA000008060F80740201891
:103224000F08C80808281800010000FF00100C034C
:1032340040807F000106180001000000100000001B
:043244000024F4006E
:04000005080028C502
:00000001FF
