:020000040800F2
:10000000000001203D4B0008C90D0008CB0D000881
:10001000CD0D0008CF0D0008D10D00080000000034
:10002000000000000000000000000000E14800089F
:10003000D30D00080000000081490008C5490008F0
:10004000854B0008854B0008854B0008D50D00083E
:10005000854B0008854B0008854B0008854B000840
:10006000854B0008854B0008854B0008854B000830
:10007000854B0008854B0008854B0008854B000820
:10008000854B0008854B0008854B0008854B000810
:10009000854B0008854B0008854B0008854B000800
:1000A000854B0008E50D0008854B0008854B0008CE
:1000B000854B0008854B0008854B0008854B0008E0
:1000C000854B0008854B0008854B0008854B0008D0
:1000D000854B0008F50D0008854B0008854B00088E
:1000E000854B0008854B0008854B0008854B0008B0
:1000F000854B0008854B0008854B0008854B0008A0
:10010000854B0008854B0008854B0008854B00088F
:10011000854B0008854B0008050E0008854B00083C
:10012000854B0008854B0008854B0008854B00086F
:1001300000000000000000000000000000000000BF
:1001400000000000000000000000000000000000AF
:10015000000000000000000000000000000000009F
:10016000000000000000000000000000000000008F
:10017000000000000000000000000000000000007F
:10018000000000000000000000000000000000006F
:10019000000000000000000000000000000000005F
:1001A000000000000000000000000000000000004F
:1001B000000000000000000000000000000000003F
:1001C000000000000000000000000000000000002F
:1001D000000000000000000000000000000000001F
:0401E0005FF8E0F1F3
:1001F00010B5054C237833B9044B13B10448AFF361
:1002000000800123237010BD48040020000000007E
:10021000EC4B000808B5034B1BB103490348AFF38F
:10022000008008BD000000004C040020EC4B0008DA
:1002300070B596B000241194129407940894099410
:100240000A940B94019402940394049405940694E4
:1002500005230C934FF480330D930E9401250F95D5
:1002600010950226139614934FF4E01315930CA8DF
:1002700000F034FE0F230793089609944FF480632F
:100280000A930B94314607A801F066F801954FF4E4
:100290008073029301A801F059F916B070BD08B53A
:1002A00000F0E2FDFFF7C4FF00F020F800F02CF9A9
:1002B00000F0CAF900F02AFD00F0E0FC00F04EFB6F
:1002C00000F0E7FB00F0D4F804F025F9FEE70000A9
:1002D00008B50268034B9A4200D008BD00F0D6FD75
:1002E000FBE700BF002C01407047000030B589B02B
:1002F00000240494059406940794174B9A6942F0DD
:1003000010029A619A6902F010020192019A9A69A8
:1003100042F008029A619A6902F008020292029A77
:100320009A6942F004029A619B6903F00403039303
:10033000039B0A4D22462321284601F035FB232347
:1003400004930123059306940223079304A92846E6
:1003500001F00EFA09B030BD00100240000C01405F
:10036000FEE7000008B505230F4A0021084600F00B
:10037000D1FB0521002000F067FA05230B4A00217C
:10038000022000F0C7FB0521022000F0FDF9084A19
:100390000021042000F026FC1023064A002106203C
:1003A00000F0B8FBDFE700BF804C0008884C000875
:1003B000904C0008A84C000808B50449044800F017
:1003C0001BF9044A13780133137008BD54520020FE
:1003D000585200200C0B002008B50AE0164C0122F0
:1003E0002021204601F0E0FA00220121204601F000
:1003F000DBFA124B1B78012BF0D0022B10D0032B11
:10040000F7D10D4C01220221204601F0CDFA002245
:100410002021204601F0C8FA084B00221A70E8E7B4
:10042000054C01221146204601F0BEFA00220221AD
:10043000204601F0B9FADCE7000C01400C0B00206B
:10044000034B0360034B0B6080231360704700BFB6
:100450006406002064040020034B0360034B0B6020
:100460004FF4807313607047B80A0020B80600206C
:10047000F0B599B01E4B1693002717973A46012105
:1004800016A804F083F81B4B18604FF47A7104F03F
:100490009FF8194C0FAD26460FCE0FC596E8070002
:1004A00085E8070039460FA804F03AF8134B1860A6
:1004B00008AD04F11C060FCE0FC596E8070085E8CD
:1004C0000700394608A804F02BF80D4B186001AD61
:1004D00038340FCC0FC594E8070085E8070039468B
:1004E00001A804F01DF8074B186019B0F0BD00BF5B
:1004F000B903000868520020044C00085C52002038
:10050000605200206452002008B50B480B4B03607A
:100510000B4B436000238360C3604FF48042026151
:1005200043618361C361036201F0B2FC00B908BD9D
:10053000FFF7DAFEFBE700BF6C52002000540040DA
:10054000A086010010B586B00023029303930493A4
:1005500005930268114B9A4201D006B010BD104CB1
:10056000A36943F00803A361A36903F008030093A0
:10057000009BC0230293122303930323059302A934
:10058000084801F0F5F8E36943F40013E361E36917
:1005900003F400130193019BDFE700BF0054004008
:1005A00000100240000C01400268104B9A4200D03B
:1005B000704700B583B001F005FB0D4BDA6942F0DE
:1005C0000062DA61DB6903F000630193019B094B70
:1005D00001221A6000221146032001F0B1FA032023
:1005E00001F0E2FA03B05DF804FB00BF0028004010
:1005F000001002403C04424238B50D46104C002227
:100600000146204601F080FF00222946204602F0E4
:100610006BF80C4DEA780221204602F037F96A782F
:100620000321204602F032F9AA780421204602F084
:100630002DF92A780521204602F028F938BD00BF9F
:10064000C05200205452002030B583B00023ADF8D2
:1006500004308DF8063000934748484A02604FF056
:10066000FF324260836002F08FF8002852D10121EE
:10067000414802F013F945F25103984253D0232325
:100680008DF8043050238DF8053000238DF80630A6
:10069000012201A9384801F0D5FE00283DD10223EE
:1006A0008DF8003006238DF8013023238DF80230B9
:1006B00020238DF80330012269462F4801F0AAFF5C
:1006C00070BB2D4C2268136843F0010313602C4D5E
:1006D0000098286045F251020121204602F0D6F828
:1006E000EA780221204602F0D1F86A7803212046F8
:1006F00002F0CCF8AA780421204602F0C7F82A7844
:100700000521204602F0C2F81D491E48FFF774FF7C
:1007100003B030BDFFF7E8FDA9E7FFF7E5FDBEE751
:10072000FFF7E2FDCDE7144C0221204602F0B6F8B7
:10073000134DE8700321204602F0B0F868700421E0
:10074000204602F0ABF8A8700521204602F0A6F87A
:1007500028702868009000226946204601F05AFF60
:1007600030B9054B1A68136843F001031360CBE7F7
:10077000FFF7BAFDF5E700BFC05200200028004097
:1007800054520020585200202DE9F84307460E46E7
:10079000DFF8AC8098F80020274CA4FB0253DB085C
:1007A00003F1300C254D85F800C003EB8303A2EB69
:1007B000430330336B7002232A4600F0ABF9DFF8B5
:1007C0008490B11C01234A46C9B2384600F0A2F910
:1007D00098F80120A4FB0213DB0803F13001297013
:1007E00003EB8303A2EB430330336B70F11C022352
:1007F0002A46C9B2384600F08DF9711D01234A46D8
:10080000C9B2384600F086F998F80230A4FB0324F8
:10081000E40804F130022A7004EB8404A3EB4404DE
:1008200030346C70B11D02232A46C9B2384600F03C
:1008300071F9BDE8F88300BFCDCCCCCC100B002003
:10084000585200208C4C00082DE9F84307460E460C
:100850002B4C3223237030236370DFF8AC8098F880
:100860000330284DA5FB03C24FEAD20C624630325A
:10087000A2700CEB8C0CA3EB4C033033E37004231D
:10088000224600F047F9DFF88490311D01234A46E3
:10089000C9B2384600F03EF998F80120A5FB0213D2
:1008A000DB0803F13001217003EB8303A2EB430368
:1008B00030336370711D02232246C9B2384600F0FE
:1008C00029F9F11D01234A46C9B2384600F022F940
:1008D00098F80230A5FB0325ED0805F130022270DF
:1008E00005EB8505A3EB45053035657006F108017C
:1008F00002232246C9B2384600F00CF9BDE8F8835D
:10090000100B0020CDCCCCCC54520020BC4C0008A5
:1009100010B586B08DF817000C4619B1402C0ED0DA
:1009200006B010BD64230293012301930DF1170259
:10093000009200227821084801F07EFBEEE7642354
:100940000293012301930DF11702009240227821B6
:10095000014801F071FBE3E76C52002008B500216B
:10096000AE20FFF7D5FF00210846FFF7D1FF002199
:100970001020FFF7CDFF00214020FFF7C9FF002125
:10098000B020FFF7C5FF00218120FFF7C1FF002144
:100990007F20FFF7BDFF0021A120FFF7B9FF002155
:1009A000A620FFF7B5FF0021A820FFF7B1FF002127
:1009B0003F20FFF7ADFF0021C820FFF7A9FF00216E
:1009C000D320FFF7A5FF00210846FFF7A1FF002174
:1009D000D520FFF79DFF00218020FFF799FF002120
:1009E000D920FFF795FF00212220FFF791FF00217A
:1009F000DA20FFF78DFF00211220FFF789FF002189
:100A0000DB20FFF785FF00212020FFF781FF002179
:100A10008D20FFF77DFF00211420FFF779FF0021D3
:100A2000AF20FFF775FF08BD10B50C465038002108
:100A3000C0B2FFF76DFF002104F00F00FFF768FF61
:100A40002009002140F01000FFF762FF10BD70B5D3
:100A50000546002601E00136F6B2072E18D8A6F1A9
:100A600050000021C0B2FFF753FF00210846FFF7F6
:100A70004FFF00211020FFF74BFF002414F0800FE0
:100A8000E9D140212846FFF743FF0134E4B2F5E7FE
:100A900070BD08B50020FFF7DAFF08BDF8B50646BF
:100AA0000F461546FFF7C0FF002405E04021285DF2
:100AB000FFF72EFF0134E4B2072CF7D9701C39463A
:100AC000C0B2FFF7B1FF002407E004F108034021A2
:100AD000E85CFFF71DFF0134E4B2072CF5D9F8BD3F
:100AE00038B50023252B08D803EB0314084D2C5DE3
:100AF000944202D00133DBB2F4E7262B06D003EB9D
:100B00000313034A1A440132FFF7C8FF38BD00BF80
:100B1000000000202DE9F041804616461F46C9001E
:100B2000CCB20025BD420AD216F8012B2146404620
:100B3000FFF7D6FF0834E4B20135EDB2F2E7BDE8C5
:100B4000F081F8B506460F461546FFF76DFF002405
:100B50000F2C06D84021285DFFF7DAFE0134E4B2FD
:100B6000F6E7701C3946C0B2FFF75EFF00240F2C79
:100B700008D804F110034021E85CFFF7C9FE0134F6
:100B8000E4B2F4E7F8BD000038B5002300E001331B
:100B90000B2B19D803EBC304114D15F8245014780E
:100BA000A542F4D103EBC3040D4D05EB8404657835
:100BB0005478A542EBD103EBC304094D05EB840443
:100BC000A5789478A542E2D10C2B07D003EBC303A0
:100BD000034A02EB83020432FFF7B3FF38BD00BFC4
:100BE0008802002070B506460C4615462B7843B1A6
:100BF0002A4621463046FFF7C7FF1034E4B20335DA
:100C0000F4E770BD00B589B001460022192000F05C
:100C100097FF192000F0C8FF144B9A6942F4006254
:100C20009A619B6903F400630193019B02A903A8E5
:100C300000F06EFC00F05CFC0D4BA3FB00239B0C52
:100C4000013B0C480C4A026040F2E732C26043604C
:100C500000230361836001F047FF18B1012009B050
:100C60005DF804FB034801F021FEF8E700100240A4
:100C700083DE1B43D4520020002C014000B583B01A
:100C80000023009301930F480F4A026047224260FD
:100C9000836044F62062C260836101F025FF50B991
:100CA0000023009301936946064801F037FF28B9F5
:100CB00003B05DF804FBFFF717FBF1E7FFF714FB48
:100CC000F6E700BF145300200010004002680E4BEE
:100CD0009A4200D0704700B583B003F50033DA695B
:100CE00042F01002DA61DB6903F010030193019B0B
:100CF00000220521362000F023FF362000F054FFAB
:100D000003B05DF804FB00BF0010004008B50A48BE
:100D10000A4B03604FF4E133436000238360C360F8
:100D200003610C2242618361C36101F0C3FF00B91A
:100D300008BDFFF7D9FAFBE7545300200038014003
:100D400030B587B0002302930393049305930268A0
:100D50001B4B9A4201D007B030BD03F558439A6946
:100D600042F480429A619A6902F480420092009AA9
:100D70009A6942F004029A619B6903F004030193AB
:100D8000019B4FF400730293022303930323059303
:100D90000C4D02A9284600F0EBFC4FF4806302934F
:100DA00000240394049402A9284600F0E1FC2246A2
:100DB0000521252000F0C4FE252000F0F5FECAE73D
:100DC00000380140000801407047FEE7FEE7FEE7FB
:100DD000FEE7704708B5024801F036FD08BD00BFC8
:100DE000C052002008B5024801F075FD08BD00BFE3
:100DF000D452002008B5024801F0EAFF08BD00BF48
:100E00005453002008B5024801F065FD08BD00BF3D
:100E10001453002000B583B0114B9A6942F00102CF
:100E20009A619A6902F001020092009ADA6942F02E
:100E30008052DA61DB6903F080530193019B002249
:100E40000F216FF0010000F07BFE064A536823F08B
:100E5000E06343F08063536003B05DF804FB00BFC0
:100E6000001002400000014008B5074A136843F033
:100E700010031360032000F051FE0020FFF7C2FEB4
:100E8000FFF7C8FF002008BD00200240034A116898
:100E9000034B1B780B441360704700BF9453002032
:100EA00038040020014B1868704700BF945300209D
:100EB00082B0084B1B68084AA2FB03235B0A00FBB5
:100EC00003F3019300BF019B5A1E0192002BF9D13D
:100ED00002B0704740040020D34D6210002800F09B
:100EE000F18170B582B00446036813F0010F2CD075
:100EF000AA4B5B6803F00C03042B1DD0A74B5B6867
:100F000003F00C03082B12D06368B3F5803F41D087
:100F1000002B55D103F1804303F504331A6822F402
:100F200080321A601A6822F480221A6037E09B4BE4
:100F30005B6813F4803FE7D0984B1B6813F4003FC5
:100F400003D06368002B00F0BF81236813F0020F09
:100F500075D0924B5B6813F00C0F5FD08F4B5B68C2
:100F600003F00C03082B54D02369002B00F0898078
:100F70008B4B01221A60FFF795FF0546874B1B68D4
:100F800013F0020F74D1FFF78DFF401B0228F5D933
:100F900003209EE1814A136843F480331360636841
:100FA00043B3FFF77FFF05467C4B1B6813F4003FFC
:100FB000CBD1FFF777FF401B6428F5D9032088E1E8
:100FC000B3F5A02F09D0754B1A6822F480321A604D
:100FD0001A6822F480221A60E1E703F18043A3F546
:100FE0003C331A6842F480221A601A6842F4803254
:100FF0001A60D4E7FFF756FF0546684B1B6813F4E9
:10100000003FA2D0FFF74EFF401B6428F5D9032014
:101010005FE1624B5B6813F4803FA5D15F4B1B68B7
:1010200013F0020F03D02369012B40F04F815B4A7C
:10103000136823F0F803616943EAC103136023686E
:1010400013F0080F32D0A369002B45D0554B012275
:101050001A60FFF727FF0546504B5B6A13F0020F3B
:1010600021D1FFF71FFF401B0228F5D9032030E1F3
:101070004A4A136823F0F803616943EAC103136025
:10108000DDE7474B00221A60FFF70CFF0546434B94
:101090001B6813F0020FD2D0FFF704FF401B022899
:1010A000F5D9032015E10120FFF702FF236813F0B3
:1010B000040F00F09780394BDB6913F0805F1DD17E
:1010C000364BDA6942F08052DA61DB6903F0805313
:1010D0000193019B012512E0324B00221A60FFF7B9
:1010E000E1FE05462D4B5B6A13F0020FDED0FFF7E1
:1010F000D9FE401B0228F5D90320EAE000252A4B3F
:101100001B6813F4807F11D0E368012B22D0002BE1
:1011100038D103F1804303F504331A6A22F0010247
:101120001A621A6A22F004021A6218E01E4A136850
:1011300043F480731360FFF7B5FE06461A4B1B6835
:1011400013F4807FE0D1FFF7ADFE801B6428F5D952
:101150000320BEE0114A136A43F001031362E368FF
:1011600073B3FFF79FFE06460C4B1B6A13F0020F8A
:1011700037D1FFF797FE801B41F288339842F3D9AD
:101180000320A6E0052B11D0044B1A6A22F00102BD
:101190001A621A6A22F004021A62E0E700100240A2
:1011A0000000424280044242007000404D4B1A6AE7
:1011B00042F004021A621A6A42F001021A62CEE791
:1011C000FFF770FE0646474B1B6A13F0020F08D06C
:1011D000FFF768FE801B41F288339842F3D9032061
:1011E00077E0E5B9E369002B72D03E4A526802F01D
:1011F0000C02082A56D0022B17D03B4B00221A6053
:10120000FFF750FE0446374B1B6813F0007F47D0B2
:10121000FFF748FE001B0228F5D9032059E0314AA8
:10122000D36923F08053D361DCE72F4B00221A608F
:10123000FFF738FE05462B4B1B6813F0007F06D0E6
:10124000FFF730FE401B0228F5D9032041E0236A56
:10125000B3F5803F1AD023494B6823F47413226AF4
:10126000606A024313434B601F4B01221A60FFF771
:1012700019FE04461B4B1B6813F0007F0ED1FFF7CD
:1012800011FE001B0228F5D9032022E0154A5368FD
:1012900023F40033A1680B435360DCE7002018E01F
:1012A000002016E0012B16D00E4B5B6803F4803152
:1012B000226A914211D103F47013626A93420ED1F3
:1012C000002006E001207047012002E0012000E03C
:1012D000002002B070BD0120FBE70120F9E70120EA
:1012E000F7E700BF001002406000424286B0164B94
:1012F0000FCB0DF1180C0CE90F0040F20123ADF8F3
:101300000430124B5B6803F00C02082A02D010482C
:1013100006B07047C3F38342624412F8102C13F4F2
:10132000803F0CD0094B5B68C3F34043634413F820
:10133000143C074800FB02F0B0FBF3F0E8E7054877
:1013400000FB02F0E4E700BFC04C000800100240C0
:1013500000127A0000093D00002800F0A08070B55E
:101360000D460446524B1B6803F007038B420BD219
:101370004F4A136823F007030B431360136803F00D
:1013800007038B4240F08D80236813F0020F17D0C3
:1013900013F0040F04D0474A536843F4E0635360EA
:1013A000236813F0080F04D0424A536843F4605393
:1013B0005360404A536823F0F003A1680B43536025
:1013C000236813F0010F31D06368012B20D0022B6A
:1013D00025D0384A126812F0020F64D035494A68A5
:1013E00022F0030213434B60FFF75CFD0646314BCE
:1013F0005B6803F00C036268B3EB820F16D0FFF753
:1014000051FD801B41F288339842F0D9032045E01A
:10141000284A126812F4003FE0D101203EE0254A3C
:10142000126812F0007FD9D1012037E0204B1B68F1
:1014300003F00703AB420AD91D4A136823F00703E0
:101440002B431360136803F00703AB422DD12368CD
:1014500013F0040F06D0174A536823F4E063E168E1
:101460000B435360236813F0080F07D0114A5368E9
:1014700023F46053216943EAC1035360FFF736FF49
:101480000C4B5B68C3F303130B4AD35CD8400B4B84
:1014900018600B4B1868FFF7B5FB002070BD0120EA
:1014A00070470120FAE70120F8E70120F6E700BFC6
:1014B0000020024000100240D44C000840040020EC
:1014C0003C040020014B1868704700BF4004002016
:1014D00008B5FFF7F7FF044B5B68C3F30223034A29
:1014E000D35CD84008BD00BF00100240E44C0008A7
:1014F00008B5FFF7E7FF044B5B68C3F3C223034A59
:10150000D35CD84008BD00BF00100240E44C000886
:101510000F2303600B4B5A6802F0030242605A68C3
:1015200002F0F00282605A6802F4E062C2605B6816
:10153000DB0803F4E0630361034B1B6803F007035C
:101540000B607047001002400020024070B582B06E
:101550000446036813F0010F34D03E4BDB6913F0EF
:10156000805F47D13B4BDA6942F08052DA61DB6938
:1015700003F080530193019B0125374B1B6813F443
:10158000807F39D0334B1B6A13F4407311D06268EB
:1015900002F440729A420CD02E4A136A23F440702F
:1015A0002E4901260E6000260E60106213F0010F16
:1015B00036D1284A136A23F4407361680B431362DF
:1015C000002D3ED1236813F0020F06D0214A536844
:1015D00023F44043A1680B435360236813F0100FBA
:1015E00034D01C4A536823F4800361690B43536071
:1015F00000202CE00025C0E7174A136843F48073ED
:101600001360FFF74FFC0646134B1B6813F4807FF3
:10161000B8D1FFF747FC801B6428F5D9032016E0FA
:10162000FFF740FC06460B4B1B6A13F0020FC0D1BC
:10163000FFF738FC801B41F288339842F3D903202E
:1016400005E0D36923F08053D361BBE7002002B0EB
:1016500070BD00BF001002400070004040044242D4
:1016600010B586B004463D4B0FCB0DF1180C0CE9BC
:101670000F0040F20123ADF80430601E0F2866D839
:10168000DFE800F0385A6532656565356565656582
:1016900065656508324B5A68186810F0807057D03D
:1016A000C2F3834306A90B4413F8100C12F4803FD5
:1016B00016D02B4B5B68C3F340430B4413F8142C38
:1016C000284BB3FBF2F300FB03F0254B5B6813F4EC
:1016D000800F3DD14000244BA3FB0030400837E091
:1016E000224B03FB00F0F0E7FFF700FE30E0FFF7CE
:1016F000FDFD2DE01A4B1B6A40F202321A40B2F592
:10170000817F27D003F44073B3F5007F04D0B3F595
:10171000407F09D000201BE0114A526A12F0020FEC
:10172000F5D049F6404013E00D4B186810F4003036
:101730000ED04FF224400BE0FFF7DAFE084B5B6857
:10174000C3F3813301335B00B0FBF3F000E0002012
:1017500006B010BD4FF40040FAE700BFC04C0008CF
:101760000010024000127A00ABAAAAAA00093D00AC
:10177000F0B482B000252C46ABE0854FBB4210D0C0
:1017800007D9844FBB420CD007F58037BB4208D045
:1017900013E0A7F58017BB4203D007F57027BB42C3
:1017A00007D18B68002B60D0012B59D042610825EE
:1017B00003E0A7F58017BB42F3D0FF2E57D884462D
:1017C000FF2E57D8A200DCF800300F27974023EAFD
:1017D000070305FA02F21343CCF800304B6813F00C
:1017E000805F75D06C4B9A6942F001029A619B69E7
:1017F00003F001030193019BA208971C674B53F868
:1018000027C004F003039F000F23BB402CEA030C06
:10181000634B984234D003F58063984200F0948083
:1018200003F58063984200F0918003F5806398424D
:1018300000F08E8003F58063984200F08B8003F502
:10184000806398421AD006231BE0CD68B5E7CD68C7
:101850000435B2E7CD680835AFE7CD680C35ACE7A5
:1018600002610825A9E70025A7E70425A5E700F1FF
:10187000040CA5E7A4F108029200A4E7052300E008
:101880000023BB4043EA0C030232444F47F82230A6
:101890004B6813F4803F5FD0424A136833431360B0
:1018A0004B6813F4003F5DD03E4A536833435360A6
:1018B0004B6813F4801F5BD03A4A936833439360BC
:1018C0004B6813F4001F59D0364AD3681E43D660C4
:1018D00001340B6833FA04F256D00122A24003EA25
:1018E000020632EA0303F3D14B68122B3FF645AFF1
:1018F000122B3FF662AF01A757F823F0A317000899
:101900004B1800085518000867180008BB17000896
:10191000BB170008BB170008BB170008BB1700085F
:10192000BB170008BB170008BB170008BB1700084F
:10193000BB170008BB170008BB170008BB1700083F
:101940004F1800085B18000801239AE7022398E764
:10195000032396E7042394E7124A136823EA060355
:1019600013609DE70F4A536823EA060353609FE71D
:101970000C4A936823EA06039360A1E7094AD368F7
:1019800023EA0606D660A3E702B0F0BC704700BFAA
:101990000000221000003110001002400000014041
:1019A00000080140000401400AB1016170470904C8
:1019B0000161704708B590F82130022B03D0042351
:1019C0008363012008BD0268136823F00E031360CF
:1019D0000268136823F00103136003684B4A9342C3
:1019E0004ED9783A934224D01432934230D01432F4
:1019F00093422FD0143293422FD0143293422FD0DF
:101A0000143293422FD0143293422FD002F56272D7
:101A100093422ED0143293422DD0143293422CD0C4
:101A20001432934202D04FF4803203E04FF48052DC
:101A300000E00122364B5A60012380F82130002358
:101A400080F82030436B002B5ED098470020B9E728
:101A50001022EFE74FF48072ECE74FF48052E9E791
:101A60004FF48032E6E74FF48012E3E74FF08072E4
:101A7000E0E70122DEE71022DCE74FF48072D9E7CD
:101A8000244A934224D01432934225D014329342F4
:101A900024D01432934224D01432934224D01432EE
:101AA000934224D01432934224D002F562729342BE
:101AB00023D01432934222D01432934221D01432D4
:101AC000934202D04FF4803203E04FF4805200E0A2
:101AD0000122114B5A60AFE71022FAE74FF48072EF
:101AE000F7E74FF48052F4E74FF48032F1E74FF418
:101AF0008012EEE74FF08072EBE70122E9E7102257
:101B0000E7E74FF48072E4E700205BE780000240E3
:101B1000000402400800024000000240074AD36867
:101B200023F4E0631B041B0C000200F4E060034399
:101B300043F0BF6343F40033D360704700ED00E02F
:101B400030B4174BDB68C3F30223C3F10704042C42
:101B500028BF04241D1D062D18D9033B4FF0FF3567
:101B600005FA04F421EA0401994005FA03F322EA94
:101B70000303194300280BDB0901C9B200F16040DF
:101B800000F5614080F8001330BC70470023E5E7A2
:101B900000F00F000901C9B2024B1954F4E700BF6D
:101BA00000ED00E014ED00E0002807DB00F01F026C
:101BB000400901239340024A42F82030704700BF99
:101BC00000E100E0014B01221A60704720000E4244
:101BD00003685A6912F4806F01D1002070476FF4D6
:101BE00080625A6100230363202280F83D2080F840
:101BF0003E30026C42F00402026480F83C30012066
:101C000070472DE9F04107460D4690461E4622E0FA
:101C1000FFF748F9069BC01AB04200D8DEB900238E
:101C20003B63202287F83D2087F83E303A6C42F033
:101C300020023A6487F83C3001201AE03B689C6936
:101C400025EA0404A4B2B4FA84F46409A0450FD1CF
:101C5000B6F1FF3FDCD1C5F30743012BEED13B6862
:101C60005C6925EA0404A4B2B4FA84F46409EDE7DB
:101C70000020BDE8F0812DE9F04105460E461746EB
:101C800098463DE01A6842F400721A602B686FF4BF
:101C900080625A6100232B63202285F83D2085F85D
:101CA0003E302A6C42F004022A6485F83C30012060
:101CB00034E0FFF7F7F8A0EB0800B84200D8FFB90E
:101CC00000232B63202285F83D2085F83E302A6CC6
:101CD00042F020022A6485F83C3001201EE02B6887
:101CE0009C6926EA0404A4B2003C18BF0124A4B1F4
:101CF0002B685A6912F4806FC4D1B7F1FF3FD8D175
:101D0000C6F30743012BEAD12B685C6926EA040479
:101D1000A4B2003C18BF0124E9E70020BDE8F0812F
:101D200070B504460D46164623685B6913F0800FB4
:101D30001CD12046FFF74CFFD0B9B5F1FF3FF3D0DF
:101D4000FFF7B0F8801BA84201D8002DECD100238A
:101D50002363202284F83D2084F83E30226C42F038
:101D60002002226484F83C30012000E0002070BD95
:101D70000120FCE72DE9F04385B004460D4691466D
:101D800098460C9E0D9F0368196841F48071196094
:101D90000097334600224FF00111FFF732FF18B1D0
:101DA000012005B0BDE8F083236805F0FE051D6144
:101DB0003B46324620492046FFF75DFF08B101202F
:101DC000EFE70023039323685A6903929B69039307
:101DD000039B3A4631462046FFF7A2FF38B9B8F1D7
:101DE000010F0FD123685FFA89F61E61D9E7236CD2
:101DF000042B01D00120D4E72268136843F4007358
:101E00001360F7E723684FEA19221A613A46314610
:101E10002046FFF785FF20B923685FFA89F61E6127
:101E2000BFE7236C042B01D00120BAE722681368B6
:101E300043F400731360F7E70200010070B5044635
:101E40000D46164623685B6913F0040F1CD120462B
:101E5000FFF7BEFED0B9B5F1FF3FF3D0FFF722F890
:101E6000801BA84201D8002DECD10023236320223F
:101E700084F83D2084F83E30226C42F02002226437
:101E800084F83C30012000E0002070BD0120FCE718
:101E9000002800F0C280F8B5044690F83D30002BD1
:101EA0006DD0242384F83D302268136823F00103A9
:101EB0001360FFF70DFB62685A4B9A4264D85A4B85
:101EC00098428CBF00230123002B40F0A880574D7F
:101ED000A5FB0035AF0C2668716821F03F0141EA8F
:101EE0009541716021680B6A23F03F0365684D4A94
:101EF00095424FD87A1C13430B622568E96921F497
:101F00004F4121F0FF016368464A93424CD80138A3
:101F10005B00B0FBF3F0013040F6FC73184278D060
:101F2000C0F30B030B43EB6121680B6823F0C00384
:101F3000E269206A024313430B6021688B6823F433
:101F4000034323F0FF032269E068024313438B60DD
:101F50002168CB6823F0FF036269A0690243134341
:101F6000CB602268136843F00103136000202064F3
:101F7000202384F83D30206384F83E00F8BD80F8CB
:101F80003C30FEF7DFFA8CE7294B98428CBF0023E8
:101F9000012399E74FF4967202FB07F2254DA5FB4A
:101FA000025292090132A6E7A268BAB9461E03EBB3
:101FB0004307B6FBF7F60136C6F30B06B6FA86F60C
:101FC000760946BBC2B9421E03EB4303B2FBF3F2F0
:101FD0000132C2F30B0242F40043A3E7461E03EBB7
:101FE000830707EB8707B6FBF7F60136C6F30B0648
:101FF000B6FA86F67609E4E7421E03EB830303EBA9
:102000008303B2FBF3F20132C2F30B0242F440430A
:1020100088E7042386E7012384E701207047012035
:10202000ACE700BFA08601007F841E0083DE1B4357
:10203000FF083D00D34D62102DE9F04383B0044604
:102040000F46904699460C9EFEF72CFF054694F8E5
:102050003D00C0B2202803D0022003B0BDE8F083C9
:102060000095192301224B492046FFF7CAFD00289D
:1020700040F0898094F83C30012B00F086800123E9
:1020800084F83C3023681A6812F0010F03D11A68F3
:1020900042F001021A602268136823F4006313609F
:1020A000212384F83D30402384F83E30002323640C
:1020B0000A9B6362BDF82C306385638D2385364BA4
:1020C000E362019500964B46424639462046FFF7AB
:1020D00051FE00285BD1238D002B35D02A46314696
:1020E0002046FFF71DFE20BB626A236812781A6142
:1020F000616A4B1C6362228D013A92B22285638D24
:102100009BB2013B9BB263852368586910F0040FB2
:10211000E1D0002ADFD04A781A61636A0133636232
:10212000238D013B2385638D9BB2013B9BB263856D
:10213000D1E7236C042B01D001208EE722681368BD
:1021400043F400731360F7E72A4631462046FFF751
:1021500075FE50B1236C042B01D001207DE722686D
:10216000136843F400731360F7E72268136843F4BD
:1021700000731360202384F83D30002384F83E3040
:1021800084F83C3069E7022067E7022065E7012018
:1021900063E700BF020010000000FFFF30B40268D8
:1021A0009469A5B2D369916988B2854205D0D06996
:1021B00080B240EA014030BC704798B240EA044027
:1021C000F9E70368186A5B6A9BB243EA004070470C
:1021D0000023092803D901330A38C0B2F9E71B01EB
:1021E000DBB218437047030903EB830300F00F00D1
:1021F00000EB4300C0B2704710F0030F14D10D4B39
:10220000A3FB00235B09642202FB13039BB26BB99F
:10221000084BA3FB0023DB094FF4C87202FB130039
:1022200080B228B901207047002070470120704714
:10223000002070471F85EB5110B400F5FA640229A5
:1022400022D801EB4103C1EBC3011F4BA3FB0113D8
:1022500002EB5303234400F2CF7003EB90031B4ABD
:10226000A2FB0020A3EB501303EBD0130433184858
:10227000A0FB03201A1A00EB52008008C0EBC0003C
:10228000181AC0B210BC704701EB4103C1EBC30187
:102290000D4BA3FB011302EB5303234403EB940305
:1022A0000A4AA2FB0424A3EB541303EBD413023316
:1022B0000748A0FB03201A1A00EB52008008C0EB6D
:1022C000C000181ADDE700BF398EE3381F85EB51D7
:1022D000254992242DE9F84380460F4690F80F9047
:1022E000447B857B002603E01E2D1FD80135013677
:1022F000BE423DD2012CF7D0032CF5D0052CF3D0F3
:10230000072CF1D0082CEFD00A2CEDD00C2CEBD000
:10231000042C15D0062C13D0092C11D00B2C0FD067
:10232000022CE4D11B2D12D80135E0E70C2C02D091
:1023300001340125DBE709F1010901252C46D6E727
:102340001D2D01D80135D2E701340125CFE71C2D21
:1023500004D01D2DCBD101340125C8E71FFA89F027
:10236000FFF74AFF08B10135C1E701340125BEE797
:1023700088F80F90E1B288F80D10EAB288F80E20C4
:102380004846FFF759FF88F80C00BDE8F88338B5D8
:102390000446FEF787FD054623685A6812F0200FB1
:1023A00007D1FEF77FFD401BB0F57A7FF4D90320FB
:1023B00004E05A6842F010025A60002038BD38B577
:1023C00004460268536823F010035360FEF76AFD69
:1023D000054623685B6813F0200F07D1FEF762FD06
:1023E000401BB0F57A7FF4D9032000E0002038BD0F
:1023F00038B505460C46FFF7CAFF08B1012038BDC5
:102400002B68220C9A612B68A4B2DC612846FFF786
:10241000D6FF0028F3D00120F1E738B505460C4679
:10242000FFF7B5FF08B1012038BD2B68220C1A62F6
:102430002B68A4B25C622846FFF7C1FF0028F3D0E6
:102440000120F1E770B5002857D00C460546002959
:1024500055D0037C012B54D0012303740223437411
:10246000BAB908784B78C3EB03139B004FF4616251
:1024700002FB00338C781C4421462846FFF7B8FF46
:102480000646C8B104236B7400232B740126304622
:1024900070BD0878FFF7A7FE4FF4616606FB00F6F3
:1024A0006078FFF7A0FEC0EB001006EB8006A07876
:1024B000FFF799FE3418DFE72A68536823F0050315
:1024C00053602846FFF77DFEB0F1FF3F01D0844204
:1024D00004D801236B7400232B74D8E700F5A831CE
:1024E00001F5C0712846FFF798FF0028F1D00423BA
:1024F0006B7400232B740126C9E70126C7E7012668
:10250000C5E70226C3E7000000286FD02DE9F84395
:102510000C461546064600296AD003685B6813F02E
:10252000040F02D00120BDE8F883FFF737FE07460D
:10253000334BA3FB0023DB0A4FF4616202FB13025F
:102540003049A1FB02014809C1F347116170C0EB9A
:102550000010A2EB8002A2702B4A974210D8237081
:10256000002D4BD02078FFF733FE20706078FFF706
:102570002FFE6070A078FFF72BFEA0700020D2E73E
:10258000224AA2FB03284FEA181808EB4802A3EBE3
:10259000C20323703046FFF714FE8146B0F1FF3FBF
:1025A00003D0874217D2A0EB0709194800FB187720
:1025B00039463046FFF71CFFE0B9B9F1FF3F0DD0B7
:1025C00009EB07013046FFF728FFA8B9414630461E
:1025D000FFF780FEC4E74FF0FF39E6E74946304693
:1025E000FFF71BFF0028F1D001209CE70120704776
:1025F000012098E7012096E7012094E7002092E768
:10260000C5B3A291898888887F510100ABAAAAAA84
:102610008051010000285AD038B50D4604460029E3
:1026200057D0037C012B56D001230374022343743B
:10263000BAB9CB78C3734B7843738B788373A27B1F
:10264000617BE07BFFF7F8FD207328702046FFF7E1
:10265000A5FD224B984211D80123637400202074F9
:1026600038BDC878FFF7BFFDE0736878FFF7BBFDA2
:102670006073A878FFF7B7FDA073E0E7184DA5FBDE
:1026800000352D0C174B03FB150529462046FFF797
:10269000AFFE28B104236374002323740120DFE715
:1026A0002046FFF78EFDB0F1FF3FD5D08542D3D94C
:1026B00000F5A83101F5C0712046FFF7AEFE0028F5
:1026C000CAD004236374002323740120C8E70120C7
:1026D00070470120C4E70220C2E700BF8F5F0100FE
:1026E00007452EC2805101002DE9F04182B0002340
:1026F000ADF804308DF8063000B30C461746054699
:10270000F1B11A4601A9FFF7FFFE0646E8B92B7B97
:102710002370E87BE07095F80D8084F80180AD7B34
:10272000A57077B1FFF754FDE0704046FFF750FD0C
:1027300060702846FFF74CFDA07002E0012600E023
:102740000126304602B0BDE8F0810126F9E7C0B1AC
:1027500038B505460268536823F008035360FEF756
:10276000A1FB04462B685B6813F0080F07D1FEF746
:1027700099FB001BB0F57A7FF4D9032000E000201C
:1027800038BD012070470000002857D010B504461E
:10279000437C4BB1022363742046FFF7D8FF38B166
:1027A00004236374012010BD0374FDF7FDFEF1E7FF
:1027B0002046FFF7ECFD60BB2268536823F0070357
:1027C0005360A36823B11E4A136B23F00103136304
:1027D0001B4AD36A23F46073A1680B43D362626817
:1027E000B2F1FF3F19D021688B6823F00F0343EA51
:1027F00012438B602168CB681B0C1B0492B21343FD
:10280000CB602046FFF7DBFD88B104236374012011
:10281000C9E7042363740120C5E70120FEF720FF08
:1028200008B1421EDFE7042363740120BBE70023E5
:10283000E37301236373A3736374B4E701207047E8
:10284000006C00407047704703681A6812F0010F6F
:102850001BD010B504465A6812F0010F0FD05B6808
:1028600013F0040F0CD0FFF7EEFF23686FF00402A3
:102870005A600423637423686FF001025A6010BD2C
:10288000FFF7E0FF01236374F5E77047890001F16A
:10289000804101F5D84192B20A607047890001F188
:1028A000804101F5D841086880B270470268D3685A
:1028B00043F00103D3600268936803F00703062B1B
:1028C00003D0136843F00103136000207047704782
:1028D00070477047704710B5044603681A6912F0D4
:1028E000020F11D0DA6812F0020F0DD06FF0020261
:1028F0001A610123037703689B6913F0030F70D0FB
:10290000FFF7E6FF0023237723681A6912F0040F0C
:1029100012D0DA6812F0040F0ED06FF004021A61C0
:102920000223237723689B6913F4407F5FD02046FE
:10293000FFF7CEFF0023237723681A6912F0080FF0
:1029400012D0DA6812F0080F0ED06FF008021A6188
:10295000042323772368DB6913F0030F4ED020464E
:10296000FFF7B6FF0023237723681A6912F0100FD0
:1029700012D0DA6812F0100F0ED06FF010021A6148
:10298000082323772368DB6913F4407F3DD020467A
:10299000FFF79EFF0023237723681A6912F0010FC7
:1029A00003D0DA6812F0010F36D123681A6912F0E9
:1029B000800F03D0DA6812F0800F34D123681A69CF
:1029C00012F0400F03D0DA6812F0400F32D12368C2
:1029D0001A6912F0200F03D0DA6812F0200F30D1FC
:1029E00010BDFFF774FF2046FFF773FF8AE720460C
:1029F000FFF76DFF2046FFF76CFF9BE72046FFF7D0
:102A000066FF2046FFF765FFACE72046FFF75FFF54
:102A10002046FFF75EFFBDE76FF001021A61204616
:102A2000FDF756FCC1E76FF080021A61204600F006
:102A300099F8C3E76FF040021A612046FFF74AFF9A
:102A4000C5E76FF020021A61204600F08AF8C7E758
:102A50000368244A904212D002F5006290420ED0E0
:102A6000B0F1804F0BD0A2F59832904207D002F51A
:102A70008062904203D002F58062904203D123F03D
:102A800070034A681343174A904212D002F500625D
:102A900090420ED0B0F1804F0BD0A2F59832904208
:102AA00007D002F58062904203D002F58062904226
:102AB00003D123F44073CA68134323F080034A69A7
:102AC000134303608B68C3620B688362054B9842B3
:102AD00003D003F50063984201D10B69036301231E
:102AE00043617047002C0140B0B110B5044690F826
:102AF0003D3063B1022384F83D30214651F8040B88
:102B0000FFF7A6FF012384F83D30002010BD80F8B8
:102B10003C30FEF7DBF8EDE70120704790F83C30E1
:102B2000012B1CD070B4012680F83C60022380F891
:102B30003D3002685568936825F070050C682C4399
:102B400023F080054B682B4354600268936080F843
:102B50003D60002380F83C30184670BC704702206E
:102B60007047704770470268D36823F49073D3604E
:102B70000268536923F001035361202380F83A303F
:102B8000704790F83930DBB2212B01D0022070471A
:102B90008368B3F5805F17D0036A5A1C02621A7803
:102BA00003685A60C38C9BB2013B9BB2C3844BB990
:102BB0000268D36823F08003D3600268D36843F0CF
:102BC0004003D36000207047036A1B880268C3F388
:102BD0000803536003691BB9036A02330362E1E728
:102BE000036A01330362DDE738B5044602681369FE
:102BF00023F44053C1680B43136183680269134394
:102C000042691A430168CB6823F4B05323F00C03E4
:102C10001343CB600268536923F4407381690B430B
:102C200053610268214B9A421FD0FEF751FC00EB22
:102C3000800000EB800063689B00B0FBF3F01C4D4C
:102C4000A5FB00325109642303FB11031B0132333E
:102C5000A5FB03235B0903F0F00202EB011203F072
:102C60000F03216813448B6038BDFEF741FC00EB75
:102C7000800000EB800063689B00B0FBF3F00C4D1C
:102C8000A5FB00325109642303FB11031B013233FE
:102C9000A5FB03235B0903F0F00202EB011203F032
:102CA0000F03216813448B60DEE700BF003801404A
:102CB0001F85EB5158B310B5044690F839300BB36B
:102CC000242384F839302268D36823F40053D36076
:102CD0002046FFF789FF2268136923F490431361AC
:102CE0002268536923F02A0353612268D36843F4AE
:102CF0000053D3600020E063202384F8393084F847
:102D00003A3010BD80F83830FEF71AF8D8E70120C5
:102D10007047704708B50168CA6822F04002CA606F
:102D2000202280F83920FFF7F4FF002008BD70470B
:102D300008B590F83A30DBB2222B46D18368B3F560
:102D4000805F0FD003690BBB03685A68836A591C04
:102D500081621A70C38D9BB2013B9BB2C385F3B1F4
:102D6000002008BD826A036943B903685B68C3F346
:102D700008031380836A02338362EBE703685B68AE
:102D8000DBB21380836A01338362E3E703685B6825
:102D9000826A511C816203F07F031370DAE70268D4
:102DA000D36823F02003D3600268D36823F48073D0
:102DB000D3600268536923F001035361202380F834
:102DC0003A30FFF7B4FF0020CBE70220C9E7704795
:102DD00010B5044602681368D168526913F00F00F9
:102DE00005D113F0200F02D011F0200F13D128B11C
:102DF00012F0010213D111F4907F10D113F0800F63
:102E000002D011F0800F69D113F0400F02D011F001
:102E1000400F67D110BD2046FFF78AFFFAE713F095
:102E2000010F06D011F4807F03D0E06B40F0010069
:102E3000E06313F0040F04D01AB1E06B40F002001D
:102E4000E06313F0020F04D01AB1E06B40F004000D
:102E5000E06313F0080F04D01AB1E26B42F00802ED
:102E6000E263E26B002AD5D013F0200F02D011F0FC
:102E7000200F21D123685B6903F04003E26B12F05D
:102E8000080F00D123B32046FFF76DFE23685A696F
:102E900012F0400F18D05A6922F040025A61636B59
:102EA00073B1124A5A63606BFEF784FD0028B1D0FB
:102EB000606B436B9847ADE72046FFF739FFD9E7D2
:102EC0002046FFF784FFA5E72046FFF780FFA1E734
:102ED0002046FFF77CFF0023E3639BE72046FFF7D4
:102EE00050FE97E72046FFF715FF93E7F12E000805
:102EF00008B5406A0023C385C384FFF768FF08BD97
:102F00000F4B1A6842F001021A6059680D4A0A40D4
:102F10005A601A6822F0847222F480321A601A68A9
:102F200022F480221A605A6822F4FE025A604FF49A
:102F30001F029A60044B4FF000629A60704700BF16
:102F4000001002400000FFF800ED00E000F108036F
:102F500043604FF0FF328260C3600361002303606F
:102F6000704700230361704743684B609A688A602A
:102F7000516099600861036801330360704730B4A1
:102F80000D68B5F1FF3F11D000F108031C465B68E6
:102F90001A68AA42FAD963684B6099608C606160D4
:102FA000086103680133036030BC70470469F2E7CD
:102FB0000369416882688A60416851605A68824248
:102FC00006D0002202611A68013A1A601868704738
:102FD00082685A60F5E710B5044601F093FCA26BD5
:102FE000E36B9A4204D0002401F0AEFC204610BDF1
:102FF0000124F9E710B5044601F084FCA36B23B962
:10300000012401F0A1FC204610BD0024F9E770B5B1
:1030100004461546866B026C5AB903681BB1002042
:103020000136A66370BD406800F0A0FF0023636016
:10303000F6E76DB9806801F0CBFD226CA3681344FC
:10304000A3606268934219D32368A3602846E7E728
:10305000C06801F0BDFD226C5142E3689B1AE36039
:103060002268934202D263680B44E360022D01D0D0
:103070000020D5E726B1013E0020D1E72846CFE762
:103080000020CDE70346026C6AB110B50846D96846
:103090001144D9605C68A14201D31968D960D9682C
:1030A00001F096FD10BD704738B5054601F02AFCC9
:1030B00095F8454064B203E000F042FF013C64B281
:1030C000002C08DD6B6A33B105F1240000F0A4FE8A
:1030D0000028F3D0F0E7FF2385F8453001F034FCF9
:1030E00001F010FC95F8444064B203E000F028FFC2
:1030F000013C64B2002C08DD2B6933B105F11000EE
:1031000000F08AFE0028F3D0F0E7FF2385F8443072
:1031100001F01AFC38BD000038B5E0B10D46044698
:1031200001F0F0FB2168E26B236C03FB021060608E
:103130000020A063A160013A02FB0313E360FF23B8
:1031400084F8443084F84530EDB9236963B901F05F
:10315000FBFB012038BD4FF0500383F31188BFF310
:103160006F8FBFF34F8FFEE704F1100000F054FEA5
:103170000028ECD0084B4FF080521A60BFF34F8FFD
:10318000BFF36F8FE3E704F11000FFF7DFFE04F1F8
:103190002400FFF7DBFEDAE704ED00E010B503469C
:1031A00002980C4631B90060C36304640121FFF743
:1031B000B3FF10BD0260F7E740B94FF0500383F34F
:1031C0001188BFF36F8FBFF34F8FFEE730B585B027
:1031D0001C46054653B192B189B94FF0500383F3B1
:1031E0001188BFF36F8FBFF34F8FFEE74FF050038F
:1031F00083F31188BFF36F8FBFF34F8FFEE76AB180
:1032000048230393039B482B13D04FF0500383F3C1
:103210001188BFF36F8FBFF34F8FFEE70029EFD008
:103220004FF0500383F31188BFF36F8FBFF34F8FBD
:10323000FEE7012384F8463000949DF820302846AC
:10324000FFF7ACFF204605B030BD0000F0B585B0FB
:10325000019288B10E461D460446B1B1022D20D11F
:10326000E36B012B1DD04FF0500383F31188BFF3A4
:103270006F8FBFF34F8FFEE74FF0500383F311883A
:10328000BFF36F8FBFF34F8FFEE7036C002BE5D0CA
:103290004FF0500383F31188BFF36F8FBFF34F8F4D
:1032A000FEE700F053FE074658B9019B002B44D0BF
:1032B0004FF0500383F31188BFF36F8FBFF34F8F2D
:1032C000FEE7002739E02A4631462046FFF79FFEF9
:1032D000626A6AB938B13C4B4FF080521A60BFF352
:1032E0004F8FBFF36F8F01F02FFB012005B0F0BDB2
:1032F00004F1240000F090FD0028F4D0324B4FF090
:1033000080521A60BFF34F8FBFF36F8FEBE701F06E
:103310001BFB0020EAE702A800F0C4FD012719E02A
:10332000002384F8443021E0002384F8453023E072
:103330002046FFF7B9FE00F073FC01F0E3FAA26B40
:10334000E36B9A42BFD3022DBDD0019B002BDED090
:10335000002FE0D001F0F8FA00F0C8FB01F0D2FA3B
:1033600094F844305BB2B3F1FF3FD9D094F84530C4
:103370005BB2B3F1FF3FD7D001F0E6FA01A902A892
:1033800000F09CFDC8B92046FFF725FE0028CFD0ED
:10339000019904F1100000F00BFD2046FFF784FEB8
:1033A00000F03EFC0028C8D1074B4FF080521A6055
:1033B000BFF34F8FBFF36F8FBFE72046FFF774FE59
:1033C00000F02EFC002091E704ED00E02DE9F84329
:1033D00090B1894690461F460446B1B1022F20D1D4
:1033E000E36B012B1DD04FF0500383F31188BFF323
:1033F0006F8FBFF34F8FFEE74FF0500383F31188B9
:10340000BFF36F8FBFF34F8FFEE7036C002BE5D048
:103410004FF0500383F31188BFF36F8FBFF34F8FCB
:10342000FEE701F05DFBEFF311864FF0500383F3ED
:103430001188BFF36F8FBFF34F8FA26BE36B9A427C
:1034400006D3022F04D0002086F31188BDE8F8834C
:1034500094F845506DB23A4649462046FFF7D7FDED
:10346000B5F1FF3F05D06B1C5BB284F845300120FD
:10347000EAE7636A0BB90120E6E704F1240000F0F3
:10348000CBFC30B1B8F1000F05D00120C8F8000026
:10349000DAE70120D8E70120D6E70000F0B585B0D3
:1034A000019290B10E460446C1B100F04FFD0746AF
:1034B00000BB019B002B5CD04FF0500383F31188BD
:1034C000BFF36F8FBFF34F8FFEE74FF0500383F3CF
:1034D0001188BFF36F8FBFF34F8FFEE7036C002B94
:1034E000E3D04FF0500383F31188BFF36F8FBFF326
:1034F0004F8FFEE700273CE031462046FFF7C2FD34
:10350000013DA563236923B901F01EFA012005B02E
:10351000F0BD04F1100000F07FFC0028F4D0354B22
:103520004FF080521A60BFF34F8FBFF36F8FEBE7FE
:1035300001F00AFA0020EAE702A800F0B3FC012734
:1035400021E0002384F8443029E0002384F845304A
:103550002BE02046FFF7A8FD00F062FB09E02046C3
:10356000FFF7A2FD00F05CFB2046FFF743FD0028BB
:103570003DD101F0C7F9A56B002DBDD1019B002BFA
:10358000D6D0002FD8D001F0DFF900F0AFFA01F06B
:10359000B9F994F844305BB2B3F1FF3FD1D094F85D
:1035A00045305BB2B3F1FF3FCFD001F0CDF901A9B7
:1035B00002A800F083FC0028D1D12046FFF71AFDB5
:1035C0000028C6D0019904F1240000F0F1FB204648
:1035D000FFF76AFD00F024FB0028CAD1054B4FF02D
:1035E00080521A60BFF34F8FBFF36F8FC1E7002087
:1035F0008DE700BF04ED00E0002300E00133072B5E
:103600000BD8064A52F83320002AF7D1034A42F871
:10361000331002EBC3035860704770479853002083
:1036200070B504460D46164601F06CF994F8443026
:103630005BB2B3F1FF3F0DD094F845305BB2B3F10C
:10364000FF3F0BD001F080F9A36B5BB12046FFF781
:103650002BFD70BD002384F84430EDE7002384F88F
:103660004530EFE73246294604F1240000F0B8FB6C
:10367000ECE70000084B1B681B6823B9074B4FF0B1
:10368000FF321A607047044B1B68DB68DB685A68BE
:10369000024B1A60704700BF140C0020E80C002099
:1036A0002DE9F04707469846089DDDF824900A9CCE
:1036B000266B02F18042013A06EB820626F00706ED
:1036C00000220F2A07D8885CA31883F834008B5C8B
:1036D0000BB10132F5E7002384F84330062D00D901
:1036E0000625E56265644FF0000AC4F848A0201D75
:1036F000FFF737FC04F11800FFF733FC2461C5F134
:103700000705A5616462C4F84CA084F850A0424645
:103710003946304601F0CEF82060B9F1000F01D0F3
:10372000C9F80040BDE8F08738B5002407E004EB95
:10373000840293000E481844FFF708FC0134062C5D
:10374000F5D90C4D2846FFF701FC0B4C2046FFF73E
:10375000FDFB0A48FFF7FAFB0948FFF7F7FB0948AA
:10376000FFF7F4FB084B1D60084B1C6038BD00BF21
:103770001C0C0020C00C0020D40C0020F00C0020F9
:103780001C0D0020080D0020140C0020180C002037
:1037900010B5044601F0B6F8204A136801331360EF
:1037A0001F4B1B685BB11F4B1B686BB91C4B1B6825
:1037B000DA6AE36A9A4207D8194B1C6004E0184B96
:1037C0001C601368012B26D0174A1368013313605D
:1037D000E06A01238340154A11680B43136000EB34
:1037E0008000211D124B03EB8000FFF7BDFB01F0B1
:1037F000ABF80C4B1B686BB1094B1B68DA6AE36AC8
:103800009A4207D20B4B4FF080521A60BFF34F8F92
:10381000BFF36F8F10BDFFF787FFD5E7A80C00201F
:10382000100C0020040D0020B80C0020BC0C00205F
:103830001C0C002004ED00E010B5044690F8513057
:1038400063B1012B11D0022B0ED04FF0500383F344
:103850001188BFF36F8FBFF34F8FFEE7006B00F04F
:10386000C1FF204600F0BEFF10BD00F0BBFFFBE72C
:103870000F4B1B68D3B110B501F044F80D4BDB685A
:10388000DC68201DFFF794FB0B4A1368013B1360B3
:10389000074A1368013B136001F056F82046FFF712
:1038A000CBFF034B1B68002BE6D110BD704700BF58
:1038B000AC0C00201C0D0020A80C002008B5FFF760
:1038C000D7FF064B1B68012BF9D9054B4FF08052EF
:1038D0001A60BFF34F8FBFF36F8FF0E71C0C00200F
:1038E00004ED00E070B504460D461D4B1E681D4BEF
:1038F00018680430FFF75CFB50B91A4B1B68DA6A92
:10390000012303FA02F218490B6823EA02030B6051
:10391000B4F1FF3F0DD03444124B1B685C60A642EB
:1039200010D9124B18680F4B19680431FFF727FBA9
:1039300070BD002DEFD00B4B196804310C48FFF718
:1039400013FBF5E70B4B1868064B19680431FFF7BA
:1039500016FB094B1B68A342EAD9074B1C60E7E73B
:10396000300D0020100C0020BC0C0020180C002092
:10397000080D0020140C0020E80C002070B586B063
:103980000B9D0C9C75B1B4B154260496049E542E24
:103990001AD04FF0500383F31188BFF36F8FBFF33A
:1039A0004F8FFEE74FF0500383F31188BFF36F8F03
:1039B000BFF34F8FFEE74FF0500383F31188BFF33F
:1039C0006F8FBFF34F8FFEE72563022584F85150B8
:1039D00000250395029405AD01950A9D0095FFF71A
:1039E0005FFE2046FFF7D4FE059806B070BD2DE9B6
:1039F000F04385B00746884614461E46900000F006
:103A000079FE00B38146542000F074FE0546B0B143
:103A1000C0F83090E5B1002385F85130039302954A
:103A20000D9B01930C9B009333462246414638463A
:103A3000FFF736FE2846FFF7ABFE012005E04846BB
:103A400000F0D0FEE6E74FF0FF3005B0BDE8F083B0
:103A50004FF0FF30F9E7000010B588B0002405945E
:103A6000069407AA06A905A8FCF7EAFC059B0293A1
:103A7000069B019300942346079A17491748FFF7BE
:103A80007DFF48B100F058FB0346012B06D0B3F18F
:103A9000FF3F18D008B010BD0023F6E74FF05003E9
:103AA00083F31188BFF36F8FBFF34F8F0C4B4FF031
:103AB000FF321A600B4B01221A600B4B00221A6076
:103AC00000F0B2FFE6E74FF0500383F31188BFF335
:103AD0006F8FBFF34F8FFEE7EC4C0008BD38000836
:103AE000E80C0020040D0020300D0020024A13686D
:103AF00001331360704700BFB40C0020014B1868FD
:103B0000704700BF300D0020F8B53A4B1B68002B02
:103B100064D1394B1D6801351D60C5B9374B1B6831
:103B20001B6843B14FF0500383F31188BFF36F8FCD
:103B3000BFF34F8FFEE7314A1168314B18681060B0
:103B40001960304A136801331360FFF793FD2E4B61
:103B50001B68AB4238D900242C4B1B68DB6A03EB93
:103B600083039A002A4B9B58012B3CD901243AE04D
:103B70000124224B1B681B6843B3204B1B68DB6886
:103B8000DE6873689D4226D3371D3846FFF710FA6A
:103B9000B36A1BB106F11800FFF70AFAF36A0122B3
:103BA0009A401C49086802430A6003EB83039A00A9
:103BB000394617481044FFF7D7F9F26A134B1B68D0
:103BC000DB6A9A42D4D2D4E70024D2E70E4B4FF0FE
:103BD000FF321A60C0E70C4A1360BDE70E4A136853
:103BE0000133136000240D4B1B6803B101242046F0
:103BF000F8BD00BFB40C0020300D0020140C0020D4
:103C0000180C0020EC0C0020E80C0020100C002008
:103C10001C0C0020BC0C0020B00C0020340D002037
:103C200038B5344B1B6843B94FF0500383F3118808
:103C3000BFF36F8FBFF34F8FFEE700F063FE2D4B96
:103C40001A68013A1A601B68002B4DD12A4B1B6879
:103C50000BB9002449E00024284B1B681BB3274BF9
:103C6000DB68DC6804F11800FFF7A2F9251D28467F
:103C7000FFF79EF9E06A01238340214A11680B4354
:103C8000136000EB800029461E4B03EB8000FFF71A
:103C90006BF9E26A1C4B1B68DB6A9A42DCD31B4B54
:103CA00001221A60D8E70CB1FFF7E4FC184B1C683E
:103CB00074B9164B1C68C4B1164B4FF080521A6091
:103CC000BFF34F8FBFF36F8F01240EE0013C07D08D
:103CD000FFF71AFF0028F9D00C4B01221A60F5E714
:103CE0000B4B00221A60E4E7002400F02DFE204672
:103CF00038BD00BFB40C0020A80C0020F00C002040
:103D0000BC0C00201C0C0020100C0020340D0020E6
:103D1000B00C002004ED00E0204B1B681BB1204BD1
:103D200001221A6070471E4B00221A601D4B1B684F
:103D3000B3FA83F3DBB2C3F11F0303EB83018A0001
:103D400019498A5842B94FF0500383F31188BFF3E1
:103D50006F8FBFF34F8FFEE710B4134903EB83005F
:103D600082000A4450684068506003EB8304A2005C
:103D700014460832114488420AD003EB83039A00A8
:103D8000094B13445B68DA68084B1A6010BC704733
:103D90004068054A22445060EFE700BFB40C0020A1
:103DA000340D0020BC0C00201C0C0020100C002046
:103DB00058B110B50C46094B19681831FFF7DFF8F8
:103DC00001212046FFF78EFD10BD4FF0500383F315
:103DD0001188BFF36F8FBFF34F8FFEE7100C0020E9
:103DE00038B570B10C4615460A4B19681831FFF703
:103DF000BBF80DB14FF0FF3429462046FFF772FDA6
:103E000038BD4FF0500383F31188BFF36F8FBFF3BA
:103E10004F8FFEE7100C002038B5C368DC6824B370
:103E200004F118052846FFF7C3F8184B1B682BBB95
:103E3000251D2846FFF7BCF8E06A01238340144A99
:103E400011680B43136000EB80002946114B03EB14
:103E50008000FFF789F8E26A0F4B1B68DB6A9A4221
:103E600011D901200D4B18600EE04FF0500383F381
:103E70001188BFF36F8FBFF34F8FFEE729460848C5
:103E8000FFF772F8E7E7002038BD00BFB40C002050
:103E9000BC0C00201C0C0020100C0020340D002055
:103EA000F00C0020034B1B680360034B1B6843604E
:103EB000704700BFEC0C0020300D0020F8B5C8B1F1
:103EC0000C460546F9B100F01DFD1B4B19686B68E7
:103ED000C81A2268B2F1FF3F26D02F68174E366805
:103EE000B74201D08B4224D9824215D800232360E7
:103EF00001241AE04FF0500383F31188BFF36F8F52
:103F0000BFF34F8FFEE74FF0500383F31188BFF3E9
:103F10006F8FBFF34F8FFEE75B1A13442360284671
:103F2000FFF7C0FF002400E0002400F00DFD204654
:103F3000F8BD0124F9E700BF300D0020EC0C002093
:103F4000014B01221A607047340D0020054B1B689D
:103F500033B1054B1B680BB100207047022070473E
:103F600001207047040D0020B40C002000284CD024
:103F700038B50446274B1B68834208D04FF05003E6
:103F800083F31188BFF36F8FBFF34F8FFEE7836C0E
:103F900043B94FF0500383F31188BFF36F8FBFF322
:103FA0004F8FFEE7013B8364C16A426C91422ED081
:103FB0000BB1002038BD051D2846FEF7F9FF70B98A
:103FC000E26A02EB82039B001349CB583BB9012301
:103FD00003FA02F211490B6823EA02030B60606CDA
:103FE000E062C0F10703A361012404FA00F30B4A65
:103FF00011680B43136000EB80002946064B03EB6E
:104000008000FEF7B1FF2046D4E700207047002073
:10401000D0E700BF100C00201C0C0020BC0C0020BE
:10402000064B1A681368B3FA83F35B09036013B98C
:10403000D368186870470020704700BF380D002013
:1040400008B54160006191420CD8D21A83699A4246
:1040500001D3012008BD011D094B1868FEF78FFF31
:104060000020F7E79A4201D2994206D2011D054B82
:104070001868FEF784FF0020ECE70120EAE700BFA4
:104080003C0D0020380D002030B583B000F03AFC24
:10409000114B1B681BB100F057FC03B030BD0F4D36
:1040A0002846FEF753FF0E4C2046FEF74FFF0D4B00
:1040B0001D600D4B1C60002300930C4B0C4A0C211F
:1040C0000A20FFF779F8044B18600028E3D009496B
:1040D000FFF792FADFE700BF2C0E0020B80D00209A
:1040E000CC0D0020380D00203C0D0020E40D0020F8
:1040F000400D0020F44C00082DE9F041079C41B927
:104100004FF0500383F31188BFF36F8FBFF34F8FCE
:10411000FEE7074616461D4688465CB1FFF7B4FF2A
:104120002760C4F81880E6612562069B6362201D43
:10413000FEF717FFBDE8F08110B588B0FFF7A4FFC8
:10414000124B1B68CBB100240594069407AA06A95C
:1041500005A8FCF781F9059B0293069B01930423B4
:1041600000932346079A0A490A48FFF707FC0A4AC0
:10417000106010B1012008B010BD4FF0500383F360
:104180001188BFF36F8FBFF34F8FFEE72C0E002017
:10419000FC4C0008E9440008300E00202DE9F041F5
:1041A00082B00446884615461E462C2000F0A2FA2E
:1041B000074658B10190089B009333462A46414672
:1041C0002046FFF799FF002387F82830384602B0D1
:1041D000BDE8F08130B585B0099C2C250395039D81
:1041E0002C2D08D04FF0500383F31188BFF36F8F4D
:1041F000BFF34F8FFEE754B10194089D0095FFF780
:104200007BFF012384F82830204605B030BD4FF0F5
:10421000500383F31188BFF36F8FBFF34F8FFEE717
:10422000C0B110B584B014461A460346164800685B
:1042300038B301910294039305291CDCFFF786FE35
:10424000022810D000231A4601A90F480068FEF783
:10425000FDFF14E04FF0500383F31188BFF36F8F1D
:10426000BFF34F8FFEE70023069A01A906480068B6
:10427000FEF7ECFF03E0002301A9FFF7A7F804B065
:1042800010BD0020FBE700BF2C0E002070B582B0EF
:104290001A4B1B681A6852B3DB681E68DC68251D60
:1042A0002846FEF785FE636A20469847E369012B9E
:1042B000EED1A36933449E4207D26360246129464C
:1042C0000E4B1868FEF75BFEE2E7002100910B46FB
:1042D00032462046FFF7A4FF0028D9D14FF0500303
:1042E00083F31188BFF36F8FBFF34F8FFEE7044A4C
:1042F000106802490860136002B070BD380D0020DC
:104300003C0D002038B50546FFF7F8FB0446074B87
:104310001B68834205D800232B60044B1C60204699
:1043200038BDFFF7B3FF01232B60F6E7E00D002057
:1043300070B582B005460E46144B1B68DB68DC681E
:10434000201DFEF735FEE369012B04D0636A204689
:10435000984702B070BDA1692B46324629442046D9
:10436000FFF76EFE0028F1D0002100910B462A468F
:104370002046FFF755FF0028E8D14FF0500383F3A4
:104380001188BFF36F8FBFF34F8FFEE7380D00200A
:1043900070B582B006460C46FFF7A8FB01A8FFF7F0
:1043A000B1FF019B1BBB05460CB9B04218D22CB122
:1043B000114B1B681C68B4FA84F464092246711B13
:1043C0000E4B1868FFF72CF9FFF72AFC88B90C4B45
:1043D0004FF080521A60BFF34F8FBFF36F8F08E02A
:1043E000FFF71EFC29463046FFF7A2FF01E0FFF76A
:1043F00017FC02B070BD00BF3C0D00202C0E002049
:1044000004ED00E010B586B0002203A9354B186812
:10441000FFF744F8002863D0039B002BF4DB059CD6
:10442000636913B1201DFEF7C3FD02A8FFF76AFF01
:10443000039B092BE8D801A252F823F06544000839
:10444000654400086544000809440008AB440008BE
:10445000D144000865440008654400080944000888
:10446000AB440008049BA169024619442046FFF7AB
:10447000E7FD0028C8D0636A20469847E369012B0E
:10448000C2D1A269002100910B4604980244204643
:10449000FFF7C6FE0028B7D14FF0500383F3118811
:1044A000BFF36F8FBFF34F8FFEE70499A16131B166
:1044B0000346024601442046FFF7C2FDA4E74FF041
:1044C000500383F31188BFF36F8FBFF34F8FFEE765
:1044D00094F82830002B97D1204600F083F993E719
:1044E00006B010BD2C0E002000B583B001A8FFF768
:1044F00097FD0199FFF74CFFFFF784FFF6E784284B
:1045000001D00330704700207047EFF3058000387A
:1045100018BF0120704708B5FFF79EFA002008BDBC
:104520002DE9F04387B004460F464569BDB1866961
:10453000AEB1D0F80480D0F80090B0F90800FFF7D1
:10454000DEFF0296019500903B46226949464046AF
:10455000FFF714FA0590059807B0BDE8F083656889
:104560002668D4F81080B4F90800FFF7C8FF05AB3F
:10457000019300903B461FFA88F231462846FFF728
:1045800036FA0128E7D00020E6E7000010B582B037
:10459000134644686CB1012909D0002201680194D6
:1045A000009101210948FFF715FE02B010BD01225C
:1045B000F4E7012907D00022016800910121034896
:1045C000FFF7ECFDF1E70122F6E700BFD04C000851
:1045D00030B585B00446002303930D4601B901258B
:1045E000FFF793FFC0B10023009303AB2A460921D4
:1045F0002046FFF715FE012802D0FF2005B030BD90
:10460000039BB3B10C4B4FF080521A60BFF34F8F36
:10461000BFF36F8F0020F1E7002300932A460421A7
:104620002046FFF7FDFD012801D0FF20E6E700202E
:10463000E4E70020E2E700BF04ED00E0124A12F0D8
:10464000070F1ED0D11D21F00701C1F58843134487
:104650000A460E480260002141601344083B23F0E3
:1046600007030B48036059601960991A5160136081
:10467000084B1960084B1960084B4FF000421A6054
:1046800070474FF48843E4E7380E0020445200207E
:10469000340E0020405200203C52002038520020AE
:1046A00010B4124B1A461B688342FBD3516854184E
:1046B000844209D041684418A3420AD00360904262
:1046C00000D0106010BC7047406801445160104633
:1046D000F0E7074C2468A34206D05B6819444160A8
:1046E00013681B680360EAE70460E8E744520020AF
:1046F000340E002070B50446FFF7F8F9344B1B6800
:10470000A3B1344B1B681C424AD134B1083414F0B5
:10471000070F02D024F007040834002C42D02E4B9F
:104720001B68A3424DD32D4B1D6804E0FFF786FFA5
:10473000E7E72B4615466A68A24202D22A68002A99
:10474000F7D1234A1268AA423DD01E6808362A686B
:104750001A606B681B1B102B10D9281910F0070F5B
:1047600008D04FF0500383F31188BFF36F8FBFF36E
:104770004F8FFEE743606C60FFF792FF6A6816494F
:104780000B689B1A0B60164909688B4201D21449C9
:104790000B60104B1B6813436B6000232B6002E01F
:1047A000002600E00026FFF73BFA16F0070F0CD0BA
:1047B0004FF0500383F31188BFF36F8FBFF34F8F18
:1047C000FEE70026EFE70026EDE7304670BD00BFAC
:1047D000340E0020385200203C5200204452002069
:1047E0004052002080B338B50446A0F1080550F8C7
:1047F000043C164A1268134208D14FF0500383F369
:104800001188BFF36F8FBFF34F8FFEE750F8081C7E
:1048100041B14FF0500383F31188BFF36F8FBFF3A3
:104820004F8FFEE723EA020340F8043CFFF75EF9EE
:1048300054F8041C064A13680B4413602846FFF71B
:104840002FFFFFF7EDF938BD704700BF3852002049
:104850003C52002082B0002301930D4B1B68B3F142
:10486000FF3F08D04FF0500383F31188BFF36F8FE1
:10487000BFF34F8FFEE74FF0500383F31188BFF370
:104880006F8FBFF34F8F019B002BFCD002B070479E
:104890004404002006480068006880F3088862B677
:1048A00061B6BFF34F8FBFF36F8F00DF00BF000013
:1048B00008ED00E04FF0807340F8043C21F0010166
:1048C00040F8081C034B40F80C3C40F8202C4038C2
:1048D000704700BF554800080000000000000000BD
:1048E000074B19680868B0E8F00F80F30988BFF338
:1048F0006F8F4FF0000080F311884EF00D0E70475F
:10490000100C00204FF0500383F31188BFF36F8F1A
:10491000BFF34F8F0A4A136801331360012B00D095
:104920007047084B1B6813F0FF0FF9D04FF050038E
:1049300083F31188BFF36F8FBFF34F8FFEE700BF84
:104940004404002004ED00E0094B1B6843B94FF01C
:10495000500383F31188BFF36F8FBFF34F8FFEE7D0
:10496000013B034A13600BB983F31188704700BF02
:1049700044040020000000000000000000000000CF
:10498000EFF30980BFF36F8F0D4B1A6820E9F00F2A
:1049900010602DE908404FF0500080F31188FFF7B8
:1049A000BBF94FF0000080F31188BDE8084019689A
:1049B0000868B0E8F00F80F30988BFF36F8F704785
:1049C000100C002008B54FF0500383F31188BFF39B
:1049D0006F8FBFF34F8FFFF797F818B1034B4FF06E
:1049E00080521A60002383F3118808BD04ED00E0B3
:1049F000084A0023136008490B60084B1B680849EC
:104A0000A1FB03139B09013B06490B6007231360BD
:104A1000704700BF10E000E018E000E04004002014
:104A2000D34D621014E000E010B582B0274B1A7825
:104A3000D2B20192FF221A701B78DBB28DF80330DC
:104A40009DF8033003F05003214A1370214B0722D5
:104A50001A609DF8033013F0800F0AD01D4A1368C6
:104A6000013B13609DF803305B00DBB28DF803302F
:104A7000EFE7184B1B68032B08D04FF0500383F36C
:104A80001188BFF36F8FBFF34F8FFEE71B0203F454
:104A9000E063104A1360019BDBB20C4A13700E4BAB
:104AA0001A6842F470021A601A6842F070421A6082
:104AB000FFF79EFF0024094B1C60FFF7EBFEFFF79A
:104AC0002BF9FFF7C7FE204602B010BD00E400E05E
:104AD0004C5200205052002020ED00E04404002001
:104AE000EFF305830F2B0FD9104A9B5CDBB2104A02
:104AF00012789A4208D94FF0500383F31188BFF31C
:104B00006F8FBFF34F8FFEE70A4B1B6803F4E06320
:104B1000094A1268934208D94FF0500383F3118871
:104B2000BFF36F8FBFF34F8FFEE77047F0E300E0F6
:104B30004C5200200CED00E050520020002103E018
:104B40000B4B5B58435004310A480B4B42189A42B6
:104B5000F6D30A4A02E0002342F8043B084B9A428B
:104B6000F9D3FEF7CDF900F00FF8FBF798FB70478B
:104B70000C4D0008000000204804002048040020DC
:104B8000D8530020FEE7000070B500260C4D0D4CF8
:104B9000641BA410A64209D100F028F800260A4D93
:104BA0000A4C641BA410A64205D170BD55F8043B05
:104BB00098470136EEE755F8043B98470136F2E78F
:104BC000044D0008044D0008044D0008084D00087D
:104BD0000A44914200F1FF3300D1704710B511F83B
:104BE000014B914203F8014FF9D110BDF8B500BF58
:104BF000F8BC08BC9E467047F8B500BFF8BC08BCBE
:044C00009E46704715
:104C0400584C000861030008000000000000000088
:104C1400800000000000000000000000644C000858
:104C2400650300080100000000000000800000008F
:104C34000000000000000000744C0008D9030008C4
:104C440001000000000000008000000000000000DF
:104C54000000000064656661756C745461736B00D8
:104C6400666C6173685F74696D655F7461736B0012
:104C74006C65645F7461736B00000000646174654B
:104C84003A00000074696D653A000000E88B8FE516
:104C94009FB9E4BDA9E68891E788B1E4BDA0EFBC63
:104CA400810000006C6F766520796F7520666F72E5
:104CB40065766572000000002E0000000203040502
:104CC400060708090A0B0C0D0E0F10100000000057
:104CD40000000000000000000102030406070809A8
:104CE400000000000102030449444C450000000098
:104CF400546D725100000000546D722053766300AD
:044D0400150200088C
:044D0800F1010008AD
:104D0C003000E010080810E000000F102020100FF9
:104D1C00003100001010F8000000000020203F209F
:104D2C00200032007008080808F000003028242207
:104D3C00213000330030080808887000001820214A
:104D4C0021221C00340000804030F80000000605D1
:104D5C0024243F24243500F888888808080000198A
:104D6C00202020110E003600E010888890000000F2
:104D7C000F112020201F0037001808088868180021
:104D8C000000003E010000003800708808088870A0
:104D9C0000001C222121221C003900F008080810F8
:104DAC00E0000001122222110F00610000808080BF
:104DBC0000000000192424123F20006210F0008033
:104DCC0080000000003F112020110E006300000045
:104DDC008080800000000E11202020110064000053
:104DEC0080808090F000001F202020103F20650064
:104DFC0000808080800000001F242424241700667B
:104E0C00008080E0909020000020203F20200000B7
:104E1C00670000808080808000006B949494936085
:104E2C00006810F0008080800000203F21000020EE
:104E3C003F206900809898000000000020203F204F
:104E4C002000006A000000809898000000C080805C
:104E5C00807F00006B10F0000080808000203F24D9
:104E6C0006293020006C001010F800000000002013
:104E7C00203F202000006D8080808080808000207A
:104E8C003F20003F20003F6E80800080808000002B
:104E9C00203F210000203F206F0000808080800098
:104EAC0000001F202020201F0070808000808000C8
:104EBC00000080FF912020110E0071000000808006
:104ECC00008000000E11202091FF807280808000F5
:104EDC008080800020203F21200001007300008092
:104EEC0080808080000033242424241900740080E6
:104EFC0080E0808000000000001F202010007580E2
:104F0C0080000000808000001F202020103F2076B1
:104F1C00808080008080800000030C300C03000037
:104F2C00778080008080008080010E300C0738066E
:104F3C00017800808080008080000020310E2E31AE
:104F4C002000798080800000808080008186781825
:104F5C000601007A00808080808080000021302C47
:104F6C00222130003A000000C0C000000000000008
:104F7C0030300000002E0000000000000000003067
:104F8C003000000000000000E9AB980004040404A9
:104F9C00F49495969494F4040404040000FE020224
:104FAC007A4A4A4A4A4A7A0282FE0000E587AF00F2
:104FBC005E50505F5050DE00FE0202FE000000000A
:104FCC00007E4222221293601F00003F4040780076
:104FDC00E790A6008484FC84844064544C474C5471
:104FEC00E444400010301F0808001F11111F4080BE
:104FFC007F000000E58AA000101010FF1010F000D8
:10500C0000F8080808F800008040300F40807F004E
:10501C00007F2020207F0000E6B2B9001060028CD7
:10502C0000F0101010FF101010F0000004047E01AE
:10503C0000FF4242427F424242FF0000EFBC81002F
:10504C00000000FE00000000000000000000000056
:10505C000000003300000000000000000000000011
:10506C00E88B8F00044444445F44F44444445FC4DC
:10507C000404040000108E40201807004080403FBC
:10508C0000010E00E59FB900202020FF2020809415
:10509C00A48586A4948480001030100F080800FCAE
:1050AC004444444444FC0000E4BDA9008060F8077B
:1050BC0000FE029292F2929202FE00000000FF00AB
:1050CC00807F001F00FF101F007FE000E68891002A
:1050DC0020242424FE23222020FF20222CA0200088
:1050EC00000848847F02414020130C142241F80030
:1050FC00E788B10080642C342424EC322222322E36
:10510C0023A260000041219189874D552525554DDD
:10511C0081808000E4BDA000008060F8074020186A
:10512C000F08C80808281800010000FF00100C0325
:10513C0040807F00010618000100000010000000F4
:08514C000024F400AAAAAAAA9B
:0400000508004B3D67
:00000001FF
